:10000000E4C100000AC2000008C2000006C20000ED
:1000100004C2000002C2000000C20000FEC10000D5
:10002000FCC10000FAC100000C94730F0C94161070
:10003000F4C10000F2C10000F0C10000EEC10000F8
:10004000ECC10000EAC10000E8C10000E6C1000008
:10005000E4C10000E2C10000E0C100000C94970E72
:10006000DCC10000DAC10000D8C10000D6C1000028
:10007000D4C10000D2C10000D0C10000CEC1000038
:10008000CCC10000CAC10000C8C10000C6C1000048
:10009000C4C10000C2C10000C0C10000BEC1000058
:1000A000BCC10000BAC10000B8C100000123022396
:1000B0000423082380230129022904290829402632
:1000C000802640298029102320234023802F402F81
:1000D000202F102F022F012F10292029402C7DFDC9
:1000E0007DFB7DF77DEF7DDF7E7F7EBF7EDF7EEF58
:1000F0007EFD7EFE7DFE0001000045031200020031
:1001000000CD019600220200F002550021020021DC
:10011000020900220300B80238002103003A020954
:100120000022040063025500210400530209000369
:100130000000C9010401030904AF01180203090406
:100140006F013E0303090461010C0403090451011A
:100150000E0E03530065007200690061006C000020
:10016000000C033100320033003400350000003E43
:1001700003530065007200690061006C002B004BA6
:10018000006500790062006F006100720064002B5E
:10019000004D006F007500730065002B004A006F72
:1001A00000790073007400690063006B00000018A0
:1001B000035400650065006E0073007900640075EB
:1001C0000069006E006F0000000403090409029634
:1001D00000050100C032080B0002020201040904FC
:1001E00000000102020100052400100105240100A5
:1001F00001042402060524060001070582031000FD
:100200004009040100020A00000007050302400043
:1002100000070584024000000904020001030101F7
:100220000009211101000122550007058103080082
:100230000109040300010301020009211101000169
:1002400022380007058503080002090404000103A1
:100250000000000921110100012255000705860355
:100260000C000105010904A1011500250175019586
:1002700020050919012920810215002507350046AE
:100280003B01750495016514050109398142050199
:100290000901A100150026FF03750A95040930091C
:1002A00031093209358102C0150026FF03750A9510
:1002B00002093609368102C005010902A1010509BA
:1002C000190129081500250195087501810205010C
:1002D0000930093109381581257F75089503810694
:1002E000050C0A38021581257F750895018106C025
:1002F00005010906A10175019508050719E029E71F
:100300001500250181029508750115002501050CD0
:1003100009E909EA09E209CD09B509B609B709B839
:1003200081029505750105081901290591029501BC
:1003300075039103950675081500257F05071900BB
:10034000297F8100C012010002EF020140C0168720
:1003500004710201020301C106C11280368136C157
:1003600006C1162C5E7460616264346667656E3621
:100370002D3738271E1F202122232425267333766C
:100380002E77785F4445464748494A4B4C4D4E4F7F
:10039000505152535455565758595A5B5C5D2F3142
:1003A00030636D350405060708090A0B0C0D0E0FA6
:1003B000101112131415161718191A1B1C1D6F7122
:1003C00070752A004104B4175C0411241FBECFEFDE
:1003D000DAE0DEBFCDBF12E0A0E0B1E0E2EBF4E393
:1003E00002C005900D92AC3BB107D9F723E0ACEB0E
:1003F000B2E001C01D92A830B207E1F711E0C4EEEF
:10040000D1E004C02197FE010E94E019C23ED1074D
:10041000C9F70E9455140C944D1AF2CDFB010190BE
:100420000020E9F73197AF01461B570BDC01ED9136
:10043000FC910280F381E02D09940F931F93CF93D9
:10044000DF93EC01EBDF8C01CE010E947112800F73
:10045000911FDF91CF911F910F91089540E855E2D0
:1004600060E070E08AEF92E00E94EC1562E370E0D9
:100470008BEC92E00E94261386988E98EEE7F0E0CF
:1004800080818F7B808385988D9880818F7D80830C
:1004900084988C9880818F7E8083819889988081D0
:1004A0008D7F80838098889880818E7F8083569806
:1004B0005E98EDE7F0E080818D7F8083259A5798E4
:1004C0005F9880818B7F8083269A24982C988081E6
:1004D000877F8083879A3E9846985098589851987D
:1004E000599889B181708093C1021092C2025298CA
:1004F0005A9853985B9889B182FB882780F980933A
:10050000BD021092BE021AD482ED92E0D7C5CF93FD
:10051000DF93EC010FB6F8948091E6029091E70228
:10052000A091E802B091E9020FBE9093C6028093B9
:10053000C50236992AC02091C8023091C902821B97
:10054000930B843F91400CF10FB6F8948091E60232
:100550009091E702A091E802B091E9020FBE90935A
:10056000C9028093C80268E270EF84EF92E00E94B3
:10057000301769E170E080E090E00E94D70E68E2F9
:1005800070EF84EF92E00E9484174E999CC0809196
:10059000C5029091C6022091C8023091C902821B07
:1005A000930B843F9140C4F12E98809180008F7D01
:1005B000809380002D9A809180008F7780938000B7
:1005C0008F9888819981892B39F56EE170EF84EFDE
:1005D00092E00E94301769E170E080E090E00E94B4
:1005E000D70E6EE170EF84EF92E00E94841762E311
:1005F00070E080E090E00E94D70E0FB6F8948091F2
:10060000E6029091E702A091E802B091E9020FBEE4
:100610009093C9028093C8024F995BC08091C50234
:100620009091C6022091C8023091C902821B930B9F
:10063000843F9140C4F12E9A809180008F7D8093F9
:1006400080002D98809180008F77809380008F9814
:100650008A819B81892B39F56FE170EF84EF92E0FD
:100660000E94301769E170E080E090E00E94D70EB0
:100670006FE170EF84EF92E00E94841762E370E014
:1006800080E090E00E94D70E0FB6F8948091E602C9
:100690009091E702A091E802B091E9020FBE909319
:1006A000C9028093C8021C9919C08091C50290911B
:1006B000C6022091C8023091C902821B930B843F6D
:1006C00091408CF448C088819981019709F0A4CFAA
:1006D0005ECF8A819B81019731F7A0CF8C819D816C
:1006E0000197C9F5E2CF2E98809180008F7D80938D
:1006F00080002D98809180008F77809380008F9A62
:100700008C819D81892B39F560E270EF84EF92E056
:100710000E94301769E170E080E090E00E94D70EFF
:1007200060E270EF84EF92E00E94841762E370E071
:1007300080E090E00E94D70E0FB6F8948091E60218
:100740009091E702A091E802B091E9020FBE909368
:10075000C9028093C802DF91CF91089569B162FB0D
:10076000882780F990E09093C0028093BF02609147
:10077000BD027091BE0286179707C9F169B163FB8C
:10078000222720F930E02817390779F068E070EF68
:1007900084EF92E00E94301769E170E080E090E021
:1007A0000E94D70E68E070EF16C089B183FB442722
:1007B00040F950E04217530791F467E070EF84EF7F
:1007C00092E00E94301769E170E080E090E00E94C2
:1007D000D70E67E070EF84EF92E00E94841780915B
:1007E000BF029091C0029093BE028093BD02089513
:1007F00069B1862F817090E09093C4028093C30208
:100800006091C1027091C20286179707C9F169B160
:1008100061FB222720F930E02817390779F062E5DB
:1008200070EF84EF92E00E94301769E170E080E0A1
:1008300090E00E94D70E62E570EF16C089B181FB8F
:10084000442740F950E04217530791F461E570EFF7
:1008500084EF92E00E94301769E170E080E090E060
:100860000E94D70E61E570EF84EF92E00E9484173A
:100870008091C3029091C4029093C2028093C102FE
:10088000089544E060E082ED92E0EAD262E572E031
:100890008BEC92E00E946E130FB6F8948091E60202
:1008A0009091E702A091E802B091E9020FBE909307
:1008B000C9028093C80208958BEC92E00C9409134E
:1008C000EF92FF920F931F93CF93DF93CDB7DEB7D5
:1008D000E0970FB6F894DEBF0FBECDBF11E08AEFF0
:1008E00092E00E947114892B79F08AEF92E00E94C5
:1008F000C2148A3031F0682F8BEC92E00E94C01352
:10090000EECF1093CA02EBCF8091CA02882309F47C
:10091000ECC161E271E08BEC92E00E94D813882375
:1009200069F06AE271E08AEF92E087DD62E572E0E9
:100930008BEC92E00E9483131092CA0262E371E092
:100940008BEC92E00E94D813882381F081E08093A1
:10095000BC026BE371E08AEF92E06FDD62E572E06A
:100960008BEC92E00E9483131092CA028091BC0229
:10097000882309F45BC061E471E0CE0101960E9416
:100980006E13BE016F5F7F4F8BEC92E00E9452149A
:100990008C01CE0101960E9409130F3F1F4F09F4ED
:1009A00045C06EE272E0CE0101960E946E13BE0158
:1009B0006F5F7F4F8BEC92E00E945214BC016F5F1F
:1009C0007F4F8BEC92E00E94F613FC0180818BA399
:1009D000CE0101960E94091382E1EFE0F1E0DE0111
:1009E000119601900D928A95E1F7CE0183960E94AF
:1009F000E61926E0AC01249FC001259F900D11242B
:100A0000E1E0F0E0EC0FFD1F8E0F9F1F80DD6BE437
:100A100071E08AEF92E011DD1092BC0262E572E0B3
:100A20008BEC92E00E9483131092CA0263E671E09D
:100A30008BEC92E00E94D813882329F08091BC02AD
:100A4000882309F493C06DE671E08BEC92E00E947C
:100A5000D8138823C9F08091C7028823A9F0809118
:100A6000BC02811111C093C062EC71E08AEF92E088
:100A7000E4DC81E08093000162E572E08BEC92E0BF
:100A80000E9483131092CA0269ED71E08BEC92E030
:100A90000E94D8138823D9F18091C7028823B9F125
:100AA0008091BC02811133C0D3C060E272E0CE01FC
:100AB00083960E946E138E010E5F1F4F7E01F1E13F
:100AC000EF0EF11CF80161918F016A3009F005C148
:100AD0000E151F05B9F7BE016D5D7F4F8AEF92E0DD
:100AE0000E941B128AEF92E00E9471121092C702BC
:100AF00081E08093000162E572E08BEC92E00E945D
:100B000083131092CA02CE0183960E94091360E3F8
:100B100072E08BEC92E00E94D8138823F1F0809170
:100B2000BC02882339F01092BC0269E372E08AEFBC
:100B300092E074DC8091C702882339F01092C702DA
:100B400069E372E08AEF92E069DC62E572E08BECC7
:100B500092E00E9483131092CA0262E572E08BEC6D
:100B600092E00E9483131092CA02BFC06BE371E04F
:100B70008AEF92E062DC81E08093C70262E572E076
:100B80008BEC92E00E9483131092CA025CCF82ED3C
:100B900092E094D28FEF8BA38CA38DA38EA38FA30F
:100BA00088A782ED92E004D6882309F49EC082EDE6
:100BB00092E0CFD0882309F498C08091DF02F0D66C
:100BC00080910001882339F067E771E08AEF92E0B5
:100BD00034DC1092000140E25EE460E070E08AEFF5
:100BE00092E00E94C7122EE130E0AE014F5F5F4FEE
:100BF00063E28AEF92E00E94CD1290E28E3148F4D7
:100C0000E1E0F0E0EC0FFD1FE80FF11D90838F5F36
:100C1000F5CF04ED12E09E012D5D3F4F40910101A3
:100C200060E682ED92E0F2D5882319F06DE871E07C
:100C30003FC020E1AE014F5F5F4F6091010182ED47
:100C400092E07FD6882309F40FCF67EA71E030C0C5
:100C500082ED92E033D280910001882339F060EE7A
:100C600071E08AEF92E0E9DB109200018FEF8AA732
:100C70008BA78CA78DA78EA78FA782ED92E098D522
:100C8000882399F182ED92E064D0882371F180E2AB
:100C900088AB04ED12E09E01265D3F4F40910101BB
:100CA00060E682ED92E0B2D5882331F062EF71E028
:100CB0008AEF92E0C2DB19C09E01205D3F4FAE017A
:100CC0004F5F5F4F6091010182ED92E0FBD5882379
:100CD00009F4EBCE69E072E0EBCF603209F4F8CEB4
:100CE000CE0183960E94C013F3CEE0960FB6F8941F
:100CF000DEBF0FBECDBFDF91CF911F910F91FF904F
:100D0000EF900895CF93DF9300D000D000D0CDB7FF
:100D1000DEB71A8219821C821B821E821D82CE01BE
:100D20000196F5DB65DD1ADDCBDD26960FB6F8946E
:100D3000DEBF0FBECDBFDF91CF910895289A209AD4
:100D40008CB580618CBD8CB580648CBD219A229A53
:100D50000895DC01ED91FD91BD010190F081E02D40
:100D600040E0099591E0811190E0892F089520914C
:100D7000E402222381F0213051F42DB32093E202CA
:100D80003DB32091E302209523232DBB04C02FB750
:100D9000F8942093E2028CBD9DBD08958EBD0000A5
:100DA0000DB407FEFDCF8EB508959091E40299230E
:100DB00039F08091E202913011F48DBB08958FBF1C
:100DC0000895BF92CF92DF92EF92FF920F931F93FD
:100DD000CF93DF937C01C42F69016068B62E83E551
:100DE00090E0C5DFD7011E96EC91F0E075D68B2D13
:100DF000D5DF0023A1F0AFEFB0E0FD0102C0EE0FA0
:100E0000FF1F0A95E2F78F018B2DC8DF8023009525
:100E1000D6019C910923082B0C9311E001C010E02E
:100E20000FEF0C0FE12FF0E0E601CE0FDF1F1017E0
:100E300028F48B2DB3DF88831F5FF4CF80E0AEDF13
:100E40008883D7011E96EC91F0E040D6DF91CF91D8
:100E50001F910F91FF90EF90DF90CF90BF90A5CFA3
:100E6000FC0188E992E09183808366874787089533
:100E70000F931F93CF93DF9300D0CDB7DEB78C01D4
:100E800083E590E04A83698372DFD8011E96EC9176
:100E9000F0E022D66981862F81DF4A81842F7EDFB0
:100EA000D8011E96EC91F0E011D60F900F90DF91D3
:100EB000CF911F910F9179CFCF92DF92EF92FF9256
:100EC0000F931F93CF93DF9300D01F92CDB7DEB760
:100ED0008C01F42E83E590E02A833B83698347DF0E
:100EE000D8011E96EC91F0E0F7D56981862F56DF88
:100EF0002A81E22EC22E3B81D32E8C2D8E198F1586
:100F000028F4F60181916F0149DFF7CFD8011E96D1
:100F1000EC91F0E0DBD50F900F900F90DF91CF9127
:100F20001F910F91FF90EF90DF90CF903ECF0F93E6
:100F30001F93CF93DF931F92CDB7DEB78C0183E56C
:100F400090E0698314DFD8011E96EC91F0E0C4D5DF
:100F50006981862F806822DF80E020DFD8011E961D
:100F6000EC91F0E0B3D5898320DF89810F90DF9188
:100F7000CF911F910F9108950F93411122DF0F918F
:100F80000895EF92FF921F93CF93DF931F92CDB7F7
:100F9000DEB77C01162F4983CADF4981482B612FB8
:100FA000C7010F90DF91CF911F91FF90EF9060CF1D
:100FB000EF92FF921F93CF93DF931F92CDB7DEB7CF
:100FC0007C01162F4983B3DF498140954823612F67
:100FD000C7010F90DF91CF911F91FF90EF9048CF05
:100FE000CF92DF92EF92FF920F931F93CF93DF93F5
:100FF000EC016B01142F790140E062E039DF44E03D
:101000006AE0CE0135DF40E864E1CE0131DF9601D0
:10101000412F62E1CE0150DF43E062E0CE0128DFE4
:1010200008E813E16AE0CE0182DF82FF10C040E0F1
:1010300062E0CE011DDF64E4CE0179DFF701808339
:1010400062E4CE0174DFF701818380E004C00150C7
:10105000110941F783E0DF91CF911F910F91FF902C
:10106000EF90DF90CF9008950F931F93CF938C0153
:101070004FE062E0FDDEC3E062E370E080E090E01C
:1010800096D662E0C80153DF84FF02C0C150A1F7C9
:10109000CF911F910F910895CF93DF93EC0168E2F8
:1010A00046DF482F8370833031F0436068E2CE0121
:1010B000DF91CF91DDCEDF91CF910895CF93DF9374
:1010C000EC018E85C8D4EE85F0E000D58F858F3F8A
:1010D00009F43FC0D1D48F85E82FF0E090D5E1111D
:1010E00038C0B9D48F8590E0FC01F6D428E02150B7
:1010F0000000E9F7FC01EAD462E370E080E090E0F0
:1011000056D640E064E2CE01B3DE40E066E2CE01B6
:10111000AFDE46E268E4CE01ABDE40E864E5CE0136
:10112000A7DE49EA66E5CE01A3DE43E068E5CE012D
:101130009FDE48EE6AE5CE019BDE40E46AE2CE0126
:1011400097DE4DE362E2CE0193DECE01DF91CF91D7
:10115000A3CFCE0189DFD5CF5F926F927F928F921E
:101160009F92AF92BF92CF92DF92EF92FF920F9336
:101170001F93CF93DF9300D000D0CDB7DEB73C01F3
:10118000162F942EA114B10419F0F501408101C06D
:1011900040E0542EF0E18F9E500C112440E062E0BC
:1011A000C3012B833C8364DE4FE768E0C30160DE4C
:1011B00040E864E1C3015CDE2B813C81402F62E1A9
:1011C000C3017ADE452D6AE1C30152DE412F62E0A0
:1011D000C3014EDE1C3021F440E86AE1C301D1DED8
:1011E00000ED17E068E0C301A2DE982F992139F4E1
:1011F00080FD03C001501109A9F783E061C06CE0D4
:10120000C30195DE182F837109F059C0E114F10470
:10121000E1F0C114D104C9F064E1C30188DE482FB4
:10122000F6018081841708F444C04083082D97019B
:1012300062E1C301A1DE68E1C30179DE8770A11418
:10124000B10421F0F501808301C080E013FD33C0BB
:10125000E114F10491F1C114D10479F19E8999232B
:1012600061F1F6014081413019F4843019F41FC056
:10127000423010F487E024C08111FCCF42509E011F
:101280002F5F3F4FB701C301ABDE811119C0F601DB
:101290008081E80EF11CF7013297908189819813C3
:1012A000E9CF319690818A819813E4CF06C08FEF01
:1012B00007C084E005C082E003C080E001C081E097
:1012C0000F900F900F900F90DF91CF911F910F9182
:1012D000FF90EF90DF90CF90BF90AF909F908F9056
:1012E0007F906F905F9008958F92AF92BF92CF9250
:1012F000DF92EF92FF920F931F93AF928C2C5701C6
:1013000068017901042F9B0140E36CE025DF0F9019
:101310001F910F91FF90EF90DF90CF90BF90AF9013
:101320008F9008952F923F924F925F926F927F928B
:101330008F929F92AF92BF92CF92DF92EF92FF92E5
:101340000F931F93CF93DF93CDB7DEB72D970FB6D3
:10135000F894DEBF0FBECDBF413508F005C1342E75
:101360003B014C0140E86CE123DEBB24B39442E036
:10137000B41691F083E0B816E1F091E0B912F8C02C
:1013800083E989833320D1F081E0F30190819530A6
:1013900008F480E0D12C17C085E98983332081F0DF
:1013A00081E0F3019081983008F480E053E0D52E7D
:1013B0000AC087E9898346E0D42E04C0D12C02C03C
:1013C00033E0D32E80E0532DF8EFDF9E500D112433
:1013D00057FD50E0882321F098E89B8343E001C04B
:1013E00042E021E0952F977009F420E0952F959524
:1013F00095959595290F21F4882311F1585F20C008
:10140000811102C094E001C093E0291708F4922FE3
:1014100020E030E06D2D70E0E42FE20FA1E0B0E0BD
:10142000AC0FBD1FAE0FB11DF901E60FF71FE60DA2
:10143000F71DE181EC932F5F3F4F291768F3DCCF55
:1014400023E0222E5032F4F040E74A839C818B81C6
:1014500089279D8189279E8189278F839E01285F07
:101460003F4F47E0BE016F5F7F4FC4015D87B8DD2E
:101470005D858111C8C01B862A86CE0107962C0186
:1014800079E01EC0952F97709B87252F2595259570
:10149000259582E0820F392FE0E18E9F300D1124D7
:1014A0003A8371E0911101C070E0780F44244394B5
:1014B000512C4C0E5D1E480E511C87E0821B8A8702
:1014C000CB844C2D4295407F4C0D6AE1C4015D8771
:1014D0007C87CEDCA12CCE010B967C018E01065FB1
:1014E0001F4F92017C85472FBE016F5F7F4FC40164
:1014F000FBDE5D85823091F56CE1C40118DD5D8510
:1015000085FD34C08F7109F480E2282F30E0452F2B
:10151000550F550B421753075CF5582F822F8595B1
:101520008595859591E0980F422F477081E009F4E9
:1015300080E0890FE1E0F0E0EC0FFD1FE80FF11D06
:10154000215031092770332781E090E001C0880FD6
:101550002A95EAF79081892B808374CF811153C03B
:10156000503244F450E270CF86E04DC082E04BC070
:1015700085E049C08B81883809F042C033E023E020
:1015800080E090E06D2D70E0FC01E60FF71FE60DA6
:10159000F71D432F480FA1E0B0E0AC0FBD1FA40F13
:1015A000B11D4C9141830196821770F38A85833077
:1015B00019F58B85811120C09E012D5F3F4F41E0C1
:1015C000B201C4010DDD81111EC09B81F201818138
:1015D000981314C09C818281981310C0808182FF6F
:1015E00002C0B394C4CEF30183878B2D880FB80E4D
:1015F000B394B08280E007C081E005C087E003C0FB
:1016000032E024E0BDCF2D960FB6F894DEBF0FBEBA
:10161000CDBFDF91CF911F910F91FF90EF90DF90A1
:10162000CF90BF90AF909F908F907F906F905F9082
:101630004F903F902F9008956F927F928F92AF922C
:10164000BF92CF92DF92EF92FF920F931F93CF93AF
:10165000DF93CDB7DEB764970FB6F894DEBF0FBE49
:10166000CDBF3C01042F122FE42EF12CA701CE0197
:1016700001960E94031A21E030E02C0F3D1F2E0D31
:101680003F1D402FBE016F5F7F4FC301A9DC811159
:1016900029C082E18C8B1B8A0E5F1F92812CCE01A8
:1016A00043965C0101966C0143977C019C0140E3E9
:1016B0006CE0C30151DD0F90112311F0833079F0FC
:1016C000811110C08C89813061F48B89843049F498
:1016D00081E099819A3009F480E0819503C080E02F
:1016E00001C081E064960FB6F894DEBF0FBECDBF97
:1016F000DF91CF911F910F91FF90EF90DF90CF90EE
:10170000BF90AF908F907F906F9008954F925F92AF
:101710006F927F928F929F92AF92CF92EF92FF92B1
:101720000F931F93CF93DF9300D0CDB7DEB76A83BB
:101730004115510529F1F9016081623008F1490133
:101740002A013C0140E86CE133DC87E08983A12C6D
:10175000C12CCE0101967C018401920141E0BE01C1
:101760006E5F7F4FC301C0DD81110DC0F401808128
:10177000823041F481E09981911105C080E003C07D
:1017800084E001C081E00F900F90DF91CF911F9115
:101790000F91FF90EF90CF90AF909F908F907F90A0
:1017A0006F905F904F9008959A01AB0166E2AECFC3
:1017B0000F931F93CF93DF9300D01F92CDB7DEB767
:1017C0008C0182E08B8340E064E2C80151DB40E0A1
:1017D00066E2C8014DDB46E268E4C80149DBAE01C0
:1017E0004D5F5F4FBE016F5F7F4FC801DDDF982FF8
:1017F00081E0992319F0923009F080E00F900F906A
:101800000F90DF91CF911F910F9108956F927F926A
:101810008F92AF92BF92CF92DF92EF92FF920F938F
:101820001F93CF93DF93CDB7DEB72C970FB6F89405
:10183000DEBF0FBECDBF3C0169834A83F901CE01F3
:1018400003962A5F3F4F4191DC014D93CD01E21792
:10185000F307C9F7F8019081E92FF0E03397E00F23
:10186000F11FCE0109969E01235F3F4F4191DC019C
:101870004D93CD01A217B307C9F71F92812CA12C5C
:10188000B12CC12CD12CE12CF12C0CE09E012F5F4E
:101890003F4F40E16EE0C3015FDC0F902C960FB626
:1018A000F894DEBF0FBECDBFDF91CF911F910F9196
:1018B000FF90EF90DF90CF90BF90AF908F907F9090
:1018C0006F9008958F929F92AF92CF92EF92FF9276
:1018D0000F931F93CF93DF9341155105F1F0F90159
:1018E00070817231D0F08901EA014C0180E3888374
:1018F00069839A012E5F3F4F42E0BE01C40170DB55
:1019000081110CC0AA24A394C12CE12CF12C9E01BE
:1019100044E0BE01C401E8DC01C084E0DF91CF9166
:101920001F910F91FF90EF90CF90AF909F908F906D
:1019300008956115710519F0413108F47DCE86E0F6
:101940000895DF92EF92FF920F931F93CF93DF934F
:1019500000D0CDB7DEB741155105B9F02031A8F060
:10196000D22E7A018C0180EA89836A8320E042E0EA
:10197000BE016F5F7F4FC8015FDE811107C020E0AD
:101980004D2DB701C801D5DF01C086E00F900F9043
:10199000DF91CF911F910F91FF90EF90DF9008950D
:1019A0008F77813430F4E82FF0E0ED5AFD4F8081DD
:1019B000089580E008951DBA109268001CBC10BE06
:1019C0001FBA10927A0010926E0010926F0010925F
:1019D0007100109272001092C900ECEBF0E01082DE
:1019E00014B817B81AB81DB810BA108215B818B8BC
:1019F0001BB81EB811BA0895F894E1E6F0E020E8AB
:101A00002083108283E084BD85BDEEE6F0E0808116
:101A10008160808381E08093800092E090938100D8
:101A200080939000909391009093C00094E09093E5
:101A3000C1008093C2008093C3001092C40086E866
:101A400080937A0020937B0010927E0010927D009C
:101A5000EDD178940895893170F4ECEAF0E0880FC4
:101A6000E80FF11D9591E491F0E08FB7F894218192
:101A7000922B91838FBF0895893138F5A5EFA80F78
:101A8000AC3048F4EEEDF0E0AA0FEA0FF11DA5919D
:101A9000B0E0959103C09FEFA0E0B0E0ECEAF0E089
:101AA000880FE80FF11D2591E491F0E04FB7F8940D
:101AB0003181822F8095282F232321832281822325
:101AC0008283EC91E923EC934FBF0895E93150F400
:101AD000EE0FED58F24F0994E93120F4EE0FEB557B
:101AE000F24F09940895289A0895299A08952A9AF8
:101AF00008952B9A08952F9A6AC0589A58C0599AF7
:101B000008955A9A08955B9A0895469A66C0479A2E
:101B10006AC05E9A08955F9A6CC02C9A08952D9AB7
:101B20004AC02E9A4EC08F9A08958E9A08958D9A23
:101B300008958C9A0895899A0895889A08955C9AD0
:101B400008955D9A0895769A089528980895299899
:101B500008952A9808952B9808952F9838C058987A
:101B600026C0599808955A9808955B980895469804
:101B700034C0479838C05E9808955F983AC02C9852
:101B800008952D9818C02E981CC08F9808958E988F
:101B900008958D9808958C98089589980895889847
:101BA00008955C9808955D98089576980895E4B531
:101BB000EF7DE4BD0895E0918000EF77E093800031
:101BC0000895E0918000EF7DE09380000895E0911A
:101BD0008000E77FE09380000895E0919000EF7728
:101BE000E09390000895E091C000EF77E093C0008B
:101BF0000895E091C200E77FE093C2000895E931C3
:101C000030F4EE0FEE0FFF27E55FF14F0994EE275A
:101C10000895E1E00895E3B1E170D9F70895E3B1E3
:101C2000E270B9F70895E3B1E47099F70895E3B16C
:101C3000E87079F70895E3B1E07859F70895E9B1CC
:101C4000E17039F70895E9B1E27019F70895E9B143
:101C5000E470F9F60895E9B1E870D9F60895E6B1AF
:101C6000E074B9F60895E6B1E07899F60895E9B11F
:101C7000E07479F60895E9B1E07859F60895E3B192
:101C8000E07139F60895E3B1E07219F60895E3B111
:101C9000E07429F50895EFB1E07809F50895EFB102
:101CA000E074E9F40895EFB1E072C9F40895EFB17A
:101CB000E071A9F40895EFB1E27089F40895EFB1ED
:101CC000E17069F40895E9B1E07149F40895E9B16A
:101CD000E07229F40895ECB1E07409F40895E1E0AC
:101CE0000895F89484B7877F84BF809160008061F5
:101CF000809360001092600080E29EE40197F1F70B
:101D000081E08093E00080E28093D80080E69AEE44
:101D10000197F1F750DE0C94003FFFCFF8944BDEB3
:101D200080E69AEE0197F1F70C940000FFCF8F93B5
:101D30008FB78F938091E5028D5F8D37D0F48093BC
:101D4000E5028091E6028F5F8093E602D8F08091F1
:101D5000E7028F4F8093E702A8F08091E8028F4F4F
:101D60008093E80278F08091E9028F4F8093E90236
:101D700009C08D578093E5028091E6028E5F8093C3
:101D8000E60228F78091EA028C5F8093EA0258F01D
:101D90008091EB028F4F8093EB0228F08091EC0250
:101DA0008F4F8093EC028F918FBF8F911895CF92B8
:101DB000DF92EF92FF926B017C0119D09B01C1145D
:101DC000D104E104F10471F012D0621B730B683E80
:101DD0007340A8F381E0C81AD108E108F10828513E
:101DE0003C4FEDCFFF90EF90DF90CF9008950FB66E
:101DF000F89466B515B27091EA028091EB02909169
:101E0000EC020FBE10FE05C06F3F19F07C5F8F4FD4
:101E10009F4F11240024660F001C660F001C7029C0
:101E200008958091E80080FFFCCF08958091D8004C
:101E300087FF02C085FF56C081E08093D70080EA0B
:101E40008093D80082E189BD09B400FEFDCF80E90E
:101E50008093D8001092E000109224031092230384
:101E60001092220310921A0310921B0310921C036B
:101E700010921D0310921E0310921F031092200354
:101E80001092210381E0809319039DE7909318033A
:101E900010921703109216031092150380931403E7
:101EA000109208031092090310920A0310920B0378
:101EB0008FE080930C0390E290930D0380E8809371
:101EC0000E0310920F0322E02093100328E02093CA
:101ED000110390931203809313031092E1008DE09D
:101EE0008093E20008951F920F920FB60F92112473
:101EF0002F933F934F935F936F937F938F939F9312
:101F0000AF93BF93EF93FF939091E1001092E100A4
:101F100093FF11C01092E90081E08093EB001092D2
:101F2000EC0082E38093ED0088E08093F000109253
:101F300024031092220392FF47C080912403882338
:101F400009F442C08091F102882359F081508093B6
:101F5000F102811106C084E08093E9008AE3809356
:101F6000E8008091F002882331F081508093F002E4
:101F7000811101C0B6DE80911803882329F1809178
:101F8000EE028F5F8093EE028370F1F481E0809324
:101F9000E9008091E80085FF17C0809117038F5FEB
:101FA000809317032091180382130EC01092170319
:101FB000EAE1F3E088E08E0F21912093F1008E1387
:101FC000FBCF8AE38093E80090FF0CC080E1809310
:101FD000E2001092240381E08093230380EA80933F
:101FE000D80019BC80912303882379F094FF0DC099
:101FF00082E189BD09B400FEFDCF80E98093D8005D
:102000008DE08093E20010922303FF91EF91BF9146
:10201000AF919F918F917F916F915F914F913F9180
:102020002F910F900FBE0F901F9018951F920F9237
:102030000FB60F921124EF92FF920F931F932F93DD
:102040003F934F935F936F937F938F939F93AF9340
:10205000BF93CF93EF93FF931092E9008091E80034
:1020600083FFA4C1C091F1008091F1000091F100C3
:102070001091F100E090F100F090F1002091F1005A
:102080003091F10092EF9093E800863009F03FC064
:102090008DE0E6EFF0E0459155914017510711F0C2
:1020A000359615C0459155914E155F0511F0339643
:1020B0000EC04591559184912F3F310519F010F0D4
:1020C0002FEF30E0281708F4822F3EEF08C0815030
:1020D00011F76CC1891B3093E8008823A9F0909117
:1020E000E800292F2570D9F392FD63C1982F813420
:1020F00008F090E4292F222369F3FA0145914093D7
:10210000F100AF012150F7CF903449F352C185302F
:1021100041F48EEF8093E80084DE00680093E300D2
:1021200048C18930F1F4C111BFC00093240310925B
:1021300022031092F1028EEF8093E80081E0E7E540
:10214000F3E021E08093E9002093EB0095919093D8
:10215000EC0095919093ED008F5F873099F78EE1B9
:102160009EC0883039F4C03809F09EC05ADE809194
:102170002403FCC0813279F4C13A09F0B6C051DEC3
:10218000E2E0F1E087E08E0F90819093F1003196CC
:102190008E13FACF07C1803209F03EC0C13209F078
:1021A00083C08091E80082FFFCCFE2E0F1E087E0AD
:1021B0008E0F9091F100908331968E13FACF8BEFB2
:1021C0008093E8008EEF8093E80080910201909167
:1021D0000301A0910401B091050186389105A10584
:1021E000B10521F48FE08093F002E3C086399105B8
:1021F000A105B10509F0DDC084E08093E9009FEFFF
:102200008091EE00837039F09093E8008091E800AF
:1022100082FDFCCFF5CF82DD823231F4C13209F08C
:1022200043C00093220304C0833221F4C132E1F59C
:10223000F8DDB8C0811111C0F4DDC23851F4E0926C
:10224000E9008091EB0085FB882780F91092E90076
:1022500001C080E08093F10081C0982F9D7F913074
:1022600019F5C23009F50115110509F060C02E2DD0
:102270002F779FEF920F963008F059C09EEF909302
:10228000E8002093E900833009F490C089E180934D
:10229000EB0081E090E001C0880F2A95EAF7809377
:1022A000EA001092EA0085C092E0E916F10409F014
:1022B00042C0C13AF1F4813059F4B3DDEAE1F3E010
:1022C00088E08E0F91919093F1008E13FBCF6AC03E
:1022D000823021F4A6DD8091180348C0833009F0D4
:1022E00065C09FDD8091190341C092E0E916F104B9
:1022F00011F5C13209F05AC0893061F48091E800CB
:1023000082FFFCCF8091F100809316038BEF8093C6
:10231000E80048C08A3029F410931803109217037C
:1023200041C08B3009F042C0009319033BC092E0DA
:10233000E916F104D9F193E0E916F10409F5C13A7F
:10234000C1F4813071F46DDD809115038093F1004B
:102350001092F1001092F1001092F1001092F10031
:1023600021C0833019F55DDD809114038093F10065
:1023700019C0C132D9F48B30C9F40093140312C0D0
:1023800094E0E916F10491F4C13A81F4813071F4DA
:1023900048DDE8E0F3E08CE08E0F91919093F1003E
:1023A0008E13FBCF8EEF8093E80003C081E2809311
:1023B000EB00FF91EF91CF91BF91AF919F918F91E2
:1023C0007F916F915F914F913F912F911F910F914D
:1023D000FF90EF900F900FBE0F901F90189580E028
:1023E00090E008950895CF92DF92EF92FF920F93BD
:1023F0001F93CF93DF936C01EB017B01E40EF51E7D
:1024000000E010E0CE15DF0561F06991D601ED9195
:10241000FC910190F081E02DC6010995080F191F6C
:10242000F1CFC801DF91CF911F910F91FF90EF90F5
:10243000DF90CF9008958F929F92AF92BF92CF92EC
:10244000DF92EF92FF920F931F93CF93DF93CDB75D
:10245000DEB7A1970FB6F894DEBF0FBECDBF5C010B
:102460004B01DB0114960D911C911597C12CD12CB9
:10247000E12CF12C0115110501F1960141E250E02A
:10248000BE016F5F7F4FC401C3D1A80101321105A6
:1024900010F040E250E0C40ED51E041B150BD50110
:1024A000ED91FC910280F381E02DBE016F5F7F4FC3
:1024B000C5010995E80EF91EDDCFC701A1960FB63B
:1024C000F894DEBF0FBECDBFDF91CF911F910F916A
:1024D000FF90EF90DF90CF90BF90AF909F908F9044
:1024E0000895CF93DF9300D0CDB7DEB72DE02983D9
:1024F0002AE02A83DC01ED91FC910280F381E02D3A
:1025000042E050E0BE016F5F7F4F09950F900F9042
:10251000DF91CF910895CF92DF92EF92FF92CF9308
:10252000DF93EC010FB6F894C090E602D090E7027A
:10253000E090E802F090E9020FBEE881F9810284A0
:10254000F385E02DCE01099597FF1AC00FB6F894D8
:102550004091E6025091E7026091E8027091E90231
:102560000FBE4C195D096E097F098B819C81AD817D
:10257000BE81481759076A077B07F8F28FEF9FEF74
:10258000DF91CF91FF90EF90DF90CF900895FC0105
:1025900043835483658376830895AF92BF92CF922D
:1025A000DF92EF92FF920F931F93CF93DF9321154A
:1025B000310511F15C01690181E0C81AD1088A0175
:1025C000C0E0D0E0E62E660FFF08CC15DD0580F4F4
:1025D000C501A1DF8E159F0559F097FF04C081E06A
:1025E000F501878305C0F80181938F012196EDCF16
:1025F000F8011082CE0102C080E090E0DF91CF911F
:102600001F910F91FF90EF90DF90CF90BF90AF9010
:102610000895FC01808191815DC50F931F93CF9335
:10262000DF93EC018B016F5F7F4F88819981EAD541
:10263000009731F0998388831B830A8381E001C06E
:1026400080E0DF91CF911F910F910895CF93DF9399
:10265000FC01228133812617370758F4EC01DDDFB6
:10266000882341F08C819D81892B19F4E881F981BF
:10267000108281E0DF91CF910895EF92FF920F9346
:102680001F93CF93DF93EC017B018A014115510524
:1026900031F4E881F981309789F010820FC0BA01D6
:1026A000D5DF2881398181110CC02115310521F038
:1026B000C90110D5198218821B821A821D821C82C0
:1026C00005C01D830C83B701C901AFD6CE01DF91D0
:1026D000CF911F910F91FF90EF900895FC0111820F
:1026E000108213821282158214821682611571057E
:1026F00049F0FB0101900020E9F73197AF01461B3B
:10270000570BBBCF0895CF93DF93EC016115710593
:1027100051F0FB0101900020E9F73197AF01461B12
:10272000570BABDF02C01D821C82CE01DF91CF911F
:102730000895EF92FF920F931F93CF93DF93EC01D5
:102740007B018C819D814115510591F08A01080F13
:10275000191FB801CE017ADF882351F02881398111
:102760008C819D81B701820F931F5FD61D830C83DF
:10277000CE01DF91CF911F910F91FF90EF900895BF
:102780000F931F93CF93DF9300D0CDB7DEB78C01AB
:1027900069831A8241E050E0BE016F5F7F4FC9DF5D
:1027A000C8010F900F90DF91CF911F910F91089565
:1027B000FC0124813581232B31F421E06115710561
:1027C00099F0FB0108C0FC018081918161157105C0
:1027D00031F421E0FC018081882331F004C01CD653
:1027E00021E0892B09F020E0822F0895FC0124814B
:1027F00035816217730720F480819181009729F455
:102800001092F20282EF92E00895860F971F0895CA
:102810000F931F93CF93DF934115510511F161156C
:102820007105F9F0DC011496ED91FC9115972E17C6
:102830003F0718F0FB01108214C0E21BF30BEA0102
:102840002197EC17FD0708F4EF018B01FC01608173
:102850007181620F731FAE01C801EED5C00FD11F89
:102860001882DF91CF911F910F910895CF93DF933D
:10287000FC01248135814217530778F4FB01DC0108
:10288000CD91DC9160817181CE01840F951FE3D5DC
:10289000009719F08C1B9D0B02C08FEF9FEFDF910B
:1028A000CF91089540E050E0E1CFA6D80E942E02DB
:1028B0000E948206FDCFCF93DF931F92CDB7DEB784
:1028C0006983DC01ED91FC910280F381E02D41E010
:1028D00050E0BE016F5F7F4F09950F90DF91CF9160
:1028E0000895FC018FB7F89490912403911102C0D0
:1028F00090E010C093E09093E9009091F200911164
:1029000009C02091E80022FFF3CF25FDF1CF2BE68F
:102910002093E8008FBF2085318537FD03C09F3F9E
:1029200009F09F5F892F90E00895CF93DF93EC012A
:102930008885998597FF09C0E881F9810284F3852C
:10294000E02DCE0109959987888788859985DF9143
:10295000CF91089520912403222371F02FB7F8948A
:1029600033E03093E9004BE63091E80035FF03C0D7
:102970004093E800F9CF2FBF2FEF3FEFFC013187E5
:1029800020870895FC012085318537FD07C04FEF72
:102990005FEF51874087C901992708959FB7F89441
:1029A00080912403882369F083E08093E9002BE67B
:1029B0008091E80085FD09C082FF03C02093E800F4
:1029C000F7CF9FBF8FEF9FEF08958091F100209187
:1029D000E80025FD03C02BE62093E8009FBF90E0B0
:1029E0000895DF92EF92FF920F931F93CF93DF939F
:1029F0008C01EB0180912403882371F07FB7F89458
:102A000084E08093E9008091EF02882369F080914F
:102A1000E80085FD07C07FBF81E0F801828320E0E8
:102A200030E0D1C01092EF0220E030E064E080E4BA
:102A3000F82EA1EFB0E09AE3E92EE3E0DE2E411597
:102A4000510509F4BFC08091E400815F9091E800D6
:102A500095FD16C07FBF9091E400981304C081E0FB
:102A60008093EF0205C090912403911104C081E08E
:102A7000F8018283A8C07FB7F8946093E900E6CF9D
:102A80008091F2009F2D981BE92FF0E04E175F0711
:102A900008F4942FE92FF0E04E1B5F0B2E0F3F1F21
:102AA000E0E4E91BE03428F4EE0FFF27E65AFA4E83
:102AB000099480C099919C9399919C9399919C932E
:102AC00099919C9399919C9399919C9399919C93A2
:102AD00099919C9399919C9399919C9399919C9392
:102AE00099919C9399919C9399919C9399919C9382
:102AF00099919C9399919C9399919C9399919C9372
:102B000099919C9399919C9399919C9399919C9361
:102B100099919C9399919C9399919C9399919C9351
:102B200099919C9399919C9399919C9399919C9341
:102B300099919C9399919C9399919C9399919C9331
:102B400099919C9399919C9399919C9399919C9321
:102B500099919C9399919C9399919C9399919C9311
:102B600099919C9399919C9399919C9399919C9301
:102B700099919C9399919C9399919C9399919C93F1
:102B800099919C9399919C9399919C9399919C93E1
:102B900099919C9399919C9399919C9399919C93D1
:102BA00099919C9399919C9399919C9399919C93C1
:102BB00099919C938091E80085FFE092E800D09283
:102BC000F1023DCF7FBFC901DF91CF911F910F91DE
:102BD000FF90EF90DF9008952FEF3FEFFC013187DA
:102BE000208724D90FB6F8948091E6029091E702ED
:102BF000A091E802B091E9020FBE9C0180912403EC
:102C0000882329F068EC70E080E090E0D0C88091E3
:102C10002303882301F10FB6F8948091E602909186
:102C2000E702A091E802B091E9020FBE40912303B0
:102C3000442389F00FB6F8944091E6025091E702E0
:102C40006091E8027091E9020FBE481B590B4B3F9F
:102C5000510560F311C00FB6F8948091E60290918F
:102C6000E702A091E802B091E9020FBE821B930B2C
:102C7000853C994008F4C2CF08956032710540F454
:102C80006A30710569F06B30710561F48BE208956B
:102C90006038710538F4FB01ED5BFC4F84910895B9
:102CA00088E2089580E0089580912403882309F440
:102CB00041C08FB7F89491E09093E9009091E400BF
:102CC0009E5C21E03091E80035FD0EC08FBF809101
:102CD0002403882379F18091E400891759F18FB793
:102CE000F8942093E900EECF90911A039093F100AD
:102CF00090911B039093F10090911C039093F1002D
:102D000090911D039093F10090911E039093F10018
:102D100090911F039093F100909120039093F10004
:102D2000909121039093F1009AE39093E800109220
:102D300017038FBF0895CF93DF93EC0166FF02C0A6
:102D400082E001C080E080931A0310921B036F732E
:102D500060931C0310921D0310921E0310921F0318
:102D60001092200310922103CE019EDF10921A03CD
:102D700010921C03CE01DF91CF9196CF6111DBCF72
:102D80000895CF93DF93EC0167FD03C01B8270E0D1
:102D90000CC0603CD8F46F738B81813061F41B826E
:102DA0008C819D819C01262BB901CE0166DF682FA5
:102DB000CE01E4DF20C08230F1F430E4639FB00143
:102DC00011248C819D81682B792B07C0603E48F4CB
:102DD0006F7180E4689FB00111247D836C8381E072
:102DE00009C0603F30F46295607F1C826D8382E091
:102DF00001C08FEF8B8381E090E0DF91CF91089548
:102E0000DC01442369F090911A03842F89238417ED
:102E100039F0942B90931A036623F9F091E003C0E4
:102E20006623E9F090E0ECE1F3E086E08E0F21917B
:102E3000261789F08E13FBCF22E030E0F901E65E21
:102E4000FC4F8081811102C0608307C02F5F3F4F1C
:102E50002830310599F7992311F0CD0125CF089538
:102E6000CF93DF93EC01272F3327223CB8F0203E8D
:102E700060F46F7377272F71332786E0220F331F9B
:102E80008A95E1F7622B732B09C0203F11F440E0D3
:102E900010C0203E91F4462F60E00BC0CE01EDDE65
:102EA000882359F086FF02C042E001C040E0682F4D
:102EB0006F73CE01DF91CF91A3CFDF91CF910895B2
:102EC0009C01442379F090911A03842F892351F0B7
:102ED0004095492340931A03611102C0C901E4CE11
:102EE00091E003C0662379F090E0ECE1F3E086E046
:102EF0008E0F4081461302C0108291E031968E13EE
:102F0000F8CF9111EBCF0895CF93DF93EC01272FEA
:102F10003327223CB8F0203E60F46F7377272F717F
:102F2000332786E0220F331F8A95E1F7622B732B3C
:102F300009C0203F11F440E010C0203E91F4462F1C
:102F400060E00BC0CE0199DE882359F086FF02C0F5
:102F500042E001C040E0682F6F73CE01DF91CF9156
:102F6000AFCFDF91CF910895EAEFF2E08AE0DF0181
:102F70001D928A95E9F788EE93E0A0E0B0E08383A4
:102F80009483A583B68382EA92E091838083E4EF01
:102F9000F2E086E0DF011D928A95E9F784EB92E08A
:102FA000918380831092F3020895CF93DF93823050
:102FB000910510F482E090E0E0910603F0910703A0
:102FC00020E030E0C0E0D0E0309711F14081518145
:102FD00048175907C0F04817590761F48281938157
:102FE000209719F09B838A832BC0909307038093CB
:102FF000060326C02115310519F04217530718F4AE
:103000009A01BE01DF01EF010280F381E02DDCCFE8
:103010002115310509F1281B390B2430310590F4B5
:1030200012968D919C9113976115710521F0FB010A
:103030009383828304C09093070380930603FD016A
:10304000329644C0FD01E20FF31F81939193225009
:1030500031092D933C933AC020910403309105032C
:10306000232B41F420910B0130910C013093050387
:10307000209304032091090130910A0121153105A3
:1030800041F42DB73EB740910D0150910E01241B24
:10309000350BE0910403F0910503E217F307A0F468
:1030A0002E1B3F0B2817390778F0AC014E5F5F4F9E
:1030B0002417350748F04E0F5F1F509305034093C8
:1030C00004038193919302C0E0E0F0E0CF01DF912F
:1030D000CF9108950F931F93CF93DF93009709F437
:1030E0008CC0FC013297138212820091060310916A
:1030F00007030115110581F420813181820F931F8F
:1031000020910403309105032817390779F5F093CE
:103110000503E093040371C0D80140E050E0AE170E
:10312000BF0750F412962D913C911397AD012115D4
:10313000310509F1D901F3CF9D01DA0133832283EF
:1031400060817181860F971F8217930769F4EC01E4
:1031500028813981260F371F2E5F3F4F318320830F
:103160008A819B8193838283452B29F4F093070303
:10317000E093060342C01396FC93EE931297ED0181
:10318000499159919E01240F351FE217F30771F4FD
:1031900080819181840F951F029611969C938E9346
:1031A0008281938113969C938E931297E0E0F0E0D6
:1031B000D80112968D919C911397009719F0F80100
:1031C0008C01F6CF8D919C9198012E5F3F4F820F1D
:1031D000931F20910403309105032817390769F4E0
:1031E000309729F4109207031092060302C013824D
:1031F00012821093050300930403DF91CF911F9176
:103200000F9108956F927F928F929F92AF92BF928B
:10321000CF92DF92EF92FF920F931F93CF93DF93A2
:10322000EC01009781F4CB01DF91CF911F910F91B9
:10323000FF90EF90DF90CF90BF90AF909F908F90D6
:103240007F906F90B2CEFC01E60FF71F9C012250D9
:103250003109E217F30708F4A2C0D9010D911C91BE
:10326000119706171707A8F00530110508F495C047
:10327000C80104978617970708F48FC002501109F8
:10328000061B170B019311936D937C93CF0122DFE3
:1032900084C05B01A01AB10A4C01800E911EA0915E
:1032A0000603B091070340E050E0E12CF12C1097A9
:1032B00009F44AC0A815B905D1F56D907C90119715
:1032C000630182E0C80ED11CCA14DB0480F1A301A3
:1032D0004A195B096A0182E0C80ED11C1296BC90A3
:1032E00012971396AC91B5E0CB16D10440F0B282A0
:1032F000A38351834083D9016D937C930AC00E5FF1
:103300001F4FC301800F911FF90191838083EB2D23
:10331000FA2FE114F10431F0D7011396FC93EE93E8
:1033200012973BC0F0930703E093060336C08D91DC
:103330009C9111974817590708F4AC017D0112962A
:103340000D90BC91A02DB3CF809104039091050303
:1033500088159905B1F44617570798F48DB79EB7AD
:1033600040910D0150910E01841B950BE817F90750
:10337000B0F4F0930503E0930403F90171836083D3
:103380000CC0CB0112DE7C01009749F0A801BE0100
:103390003AD0CE019FDEC70104C0CE0102C080E05A
:1033A00090E0DF91CF911F910F91FF90EF90DF9010
:1033B000CF90BF90AF909F908F907F906F90089527
:1033C000EE0FFF1F0590F491E02D0994FC01882772
:1033D0009927E89421912032E9F3293010F02E301A
:1033E000C8F32B3239F02D3231F4689403C04DD03C
:1033F000820F911D219120532A30C8F31EF490951D
:1034000081959F4F0895FB01DC0102C001900D9250
:1034100041505040D8F70895FB01DC018D91019097
:1034200080190110D9F3990B0895FB01DC0101907B
:103430000D920020E1F70895FB01DC01415050405E
:1034400048F001900D920020C9F701C01D92415033
:103450005040E0F70895FB0151915523A9F0BF01B9
:10346000DC014D9145174111E1F759F4CD0101906F
:10347000002049F04D9140154111C9F3FB01411164
:10348000EFCF81E090E0019708957AE0979F902D2B
:10349000879F802D910D1124089511E0C4EED1E095
:1034A00003C0FE018DDF2196C53ED107D1F7F89408
:0234B000FFCF4C
:1034B200010100E100000000080000250380000176
:1034C20000000000000000010000000000000001F8
:1034D20000636F6E5F746573740073756363657305
:1034E2007300636F6E5F696E69740052656164791F
:1034F20000636F6E5F736574757000636F6E5F73E8
:10350200657475702D53455455503A535543434590
:10351200535300636F6E5F737461727400726571EE
:103522005F7772697465007265715F77726974653D
:103532002D57524954453A535441525400726571C1
:103542005F77726974652D4552524F523A41555414
:10355200485F4641494C007265715F7772697465D4
:103562002D4552524F523A57524954455F464149AE
:103572004C007265715F77726974652D53554343D0
:103582004553533A444F4E45007265715F494400BA
:103592007265715F49442D524541443A5354415238
:1035A20054007265715F49442D4552524F523A415F
:1035B2005554485F4641494C007265715F49442D3C
:1035C2004552524F523A524541445F4641494C009E
:1035D2007265715F49442D535543434553533A0035
:1035E200636F6E5F6578697400636F6E5F6578699B
:1035F200742D535543434553533A434F4E5F454E03
:10360200440A0006090000FF000000040300000055
:103612000000000707000000000000050000000095
:103622000000000100000000000000000000000097
:103632000000000000000000000000000000000088
:1036420000000002000000009209D80BA906000049
:1036520000005B14F114EF11AA147114C214951432
:0C36620000000000C116F311EF11F2117E
:00000001FF
