:10000000D8C10000FEC10000FCC10000FAC1000020
:10001000F8C10000F6C10000F4C10000F2C1000008
:10002000F0C10000EEC100000C94EB0D0C948E0E9C
:10003000E8C10000E6C10000E4C10000E2C1000028
:10004000E0C10000DEC10000DCC10000DAC1000038
:10005000D8C10000D6C10000D4C100000C940F0D1F
:10006000D0C10000CEC10000CCC10000CAC1000058
:10007000C8C10000C6C10000C4C10000C2C1000068
:10008000C0C10000BEC10000BCC10000BAC1000078
:10009000B8C10000B6C10000B4C10000B2C1000088
:1000A000B0C10000AEC10000ACC1000001230223BA
:1000B0000423082380230129022904290829402632
:1000C000802640298029102320234023802F402F81
:1000D000202F102F022F012F10292029402C000142
:1000E00000002D031200020000B50196002202005C
:1000F000D802550021020009020900220300A002D3
:100100003800210300220209002204004B0255009E
:100110002104003B020900030000B10104010309AE
:10012000049701180203090457013E030309044917
:10013000010C0403090439010E0E0353006500721B
:1001400000690061006C0000000C033100320033D4
:10015000003400350000003E035300650072006962
:100160000061006C002B004B006500790062006F9D
:10017000006100720064002B004D006F0075007379
:100180000065002B004A006F00790073007400695D
:100190000063006B00000018035400650065006EEA
:1001A00000730079006400750069006E006F000044
:1001B000000403090409029600050100C032080B7F
:1001C000000202020104090400000102020100050C
:1001D0002400100105240100010424020605240660
:1001E00000010705820310004009040100020A0013
:1001F00000000705030240000007058402400000DC
:10020000090402000103010100092111010001227A
:1002100055000705810308000109040300010301DB
:100220000200092111010001223800070585030899
:10023000000209040400010300000009211101006B
:1002400001225500070586030C000105010904A1E0
:100250000115002501750195200509190129208145
:1002600002150025073500463B017504950165140C
:1002700005010939814205010901A100150026FF88
:1002800003750A950409300931093209358102C024
:10029000150026FF03750A9502093609368102C04A
:1002A00005010902A1010509190129081500250107
:1002B0009508750181020501093009310938158158
:1002C000257F750895038106050C0A3802158125DE
:1002D0007F750895018106C005010906A101750118
:1002E0009508050719E029E7150025018102950801
:1002F000750115002501050C09E909EA09E209CD96
:1003000009B509B609B709B881029505750105084F
:100310001901290591029501750391039506750848
:100320001500257F05071900297F8100C0120100F3
:1003300002EF020140C0168704710201020301C1ED
:1003400006C11280368136C106C1162C5E7460610A
:100350006264346667656E362D3738271E1F20218C
:1003600022232425267333762E77785F444546472B
:1003700048494A4B4C4D4E4F505152535455565785
:1003800058595A5B5C5D2F3130636D3504050607A3
:1003900008090A0B0C0D0E0F101112131415161765
:1003A00018191A1B1C1D6F7170752A008E03FB151E
:1003B000B40311241FBECFEFDAE0DEBFCDBF12E0E1
:1003C000A0E0B1E0E2ECF0E302C005900D92A038AD
:1003D000B107D9F722E0A0E8B2E001C01D92AF3C1E
:1003E000B207E1F711E0C8EDD1E004C02197FE01AA
:1003F0000E942718C63DD107C9F70E949C120C9491
:100400005518FECDFB0101900020E9F73197AF01AF
:10041000461B570BDC01ED91FC910280F381E02D2E
:1004200009940F931F93CF93DF93EC01EBDF8C01C3
:10043000CE010E94E910800F911FDF91CF911F9193
:100440000F91089540E855E260E070E081EC92E0A1
:100450000E94331462E370E08EE892E00E949E11E5
:1004600057985F98EDE7F0E080818B7F8083249838
:100470002C988081877F808325982D9880818F7E1E
:10048000808386988E98EEE7F0E080818F7B808372
:1004900085988D9880818F7D808384988C988081C9
:1004A0008F7E80838FB185FB882780F980938402BB
:1004B0001092850283B186FB882780F980938002A1
:1004C00010928102E5D285E992E0A2C40FB6F894B9
:1004D0008091AE029091AF02A091B002B091B102B2
:1004E0000FBE90938902809388027E992AC0209142
:1004F0008B0230918C02821B930B843F91400CF154
:100500000FB6F8948091AE029091AF02A091B00224
:10051000B091B1020FBE90938C0280938B0268E27F
:1005200070EF8BEB92E00E94771569E170E080E05C
:1005300090E00E944F0D68E270EF8BEB92E00E941A
:10054000CB154F9B05C01C9B1CC01D9B33C0089541
:100550006EE170EF8BEB92E00E94771569E170E03D
:1005600080E090E00E944F0D6EE170EF8BEB92E027
:100570000E94CB1562E370E080E090E00E944F0D96
:10058000E2CF6FE170EF8BEB92E00E94771569E1AB
:1005900070E080E090E00E944F0D6FE170EF8BEB18
:1005A00092E00E94CB1562E370E080E090E00E9450
:1005B0004F0DCBCF60E270EF8BEB92E00E9477158E
:1005C00069E170E080E090E00E944F0D60E270EF22
:1005D0008BEB92E00E94CB1562E370E080E090E04C
:1005E0000C944F0D23B126FB882780F990E090935F
:1005F00083028093820220918002309181028217CF
:10060000930709F440C04FB1042E000C550B252F61
:10061000221F2227221F30E02817390779F068E0CF
:1006200070EF8BEB92E00E94771569E170E080E05B
:1006300090E00E944F0D68E070EF19C08FB1082E56
:10064000000C990B8827990F881F99278217930709
:1006500091F467E070EF8BEB92E00E94771569E10F
:1006600070E080E090E00E944F0D67E070EF8BEB50
:1006700092E00E94CB158091820290918302909328
:1006800081028093800208956FB165FB882780F90D
:1006900090E090938702809386026091840270912B
:1006A000850286179707C9F16FB164FB222720F9ED
:1006B00030E02817390779F062E570EF8BEB92E0B4
:1006C0000E94771569E170E080E090E00E944F0D94
:1006D00062E570EF16C08FB184FB442740F950E00B
:1006E0004217530791F461E570EF8BEB92E00E94A3
:1006F000771569E170E080E090E00E944F0D61E5C0
:1007000070EF8BEB92E00E94CB1580918602909166
:10071000870290938502809384020895E5E9F2E0D0
:100720008BE592E091838083168684E087878CEA4C
:1007300092E0918B808B83E5828B138A65E172E076
:100740008EE892E00E94E6110FB6F8948091AE0216
:100750009091AF02A091B002B091B1020FBE909300
:100760008C0280938B0208958EE892E00C948111A4
:10077000EF92FF920F931F93CF93DF93CDB7DEB726
:10078000E0970FB6F894DEBF0FBECDBF11E081EC4D
:1007900092E00E94B812892B79F081EC92E00E94DD
:1007A00009138A3031F0682F8EE892E00E943812E7
:1007B000EECF10938D02EBCF80918D02882309F448
:1007C00056C12C9A6FE071E08EE892E00E945012C0
:1007D000882369F068E171E081EC92E022DE65E156
:1007E00072E08EE892E00E94FB1110928D0260E2AE
:1007F00071E08EE892E00E945012882381F06AE254
:1008000071E081EC92E00DDE81E080938A0265E187
:1008100072E08EE892E00E94FB1110928D0260E37C
:1008200071E08EE892E00E9450128823A9F0809136
:100830008A0281116EC010C065E871E081EC92E01F
:10084000F0DD81E08093000165E172E08EE892E0E6
:100850000E94FB1110928D026CE971E08EE892E02B
:100860000E9450128823B9F180918A028111B2C08E
:1008700032C063EE71E0CE0183960E94E6118E01D4
:100880000E5F1F4F7E0181E1E80EF11CF8016191BE
:100890008F016A3009F0E3C00E151F05B9F7BE01DC
:1008A0006D5D7F4F81EC92E00E94931081EC92E0AD
:1008B0000E94E91010928A0281E08093000165E1B4
:1008C00072E08EE892E00E94FB1110928D02CE0140
:1008D00083960E94811163EF71E08EE892E00E949E
:1008E0005012882309F4C3C080918A02882309F436
:1008F000BEC010928A026CEF71E081EC92E082DD62
:1009000065E172E08EE892E00E94FB1110928D0288
:10091000AEC085E992E07CD28FEF8BA38CA38DA330
:100920008EA38FA388A785E992E0E4D5882309F4F4
:100930009EC085E992E0B7D0882309F498C08091E1
:10094000A202D0D680910001882339F06AE371E0D9
:1009500081EC92E066DD1092000140E25EE460E02E
:1009600070E081EC92E00E943F112EE130E0AE0198
:100970004F5F5F4F63E281EC92E00E94451190E28D
:100980008E3148F4E1E0F0E0EC0FFD1FE80FF11DBF
:1009900090838F5FF5CF07E912E09E012D5D3F4FF9
:1009A0004091010160E685E992E0D2D5882319F0F3
:1009B00060E571E03FC020E1AE014F5F5F4F6091A5
:1009C000010185E992E05FD6882309F435CF6AE614
:1009D00071E030C085E992E01BD28091000188234C
:1009E00039F063EA71E081EC92E01BDD10920001C6
:1009F0008FEF8AA78BA78CA78DA78EA78FA785E9D6
:100A000092E078D5882399F185E992E04CD088234B
:100A100071F180E288AB07E912E09E01265D3F4F4D
:100A20004091010160E685E992E092D5882331F09A
:100A300065EB71E081EC92E0F4DC19C09E01205D71
:100A40003F4FAE014F5F5F4F6091010185E992E03A
:100A5000DBD5882309F40DCF6CEC71E0EBCF60326D
:100A600009F41ACFCE0183960E94381215CFE09672
:100A70000FB6F894DEBF0FBECDBFDF91CF911F91AF
:100A80000F91FF90EF90089521DDFEDDABDD70CE7C
:100A9000289A209A8CB580618CBD8CB580648CBD01
:100AA000219A229A0895DC01ED91FD91BD010190FA
:100AB000F081E02D40E0099591E0811190E0892FCF
:100AC00008952091AB02222381F0213051F42DB3FF
:100AD0002093A9023DB32091AA02209523232DBB88
:100AE00004C02FB7F8942093A9028CBD9DBD089532
:100AF0008EBD00000DB407FEFDCF8EB50895909118
:100B0000AB02992339F08091A902913011F48DBB89
:100B100008958FBF0895AF92BF92CF92DF92EF9268
:100B2000FF920F931F93CF93DF937C01A42E690153
:100B30006068B62EDC0152968D919C915397C1DF6F
:100B4000D7011E96EC91F0E03FD6AA948B2DD0DF12
:100B50000023A1F0AFEFB0E0FD0102C0EE0FFF1FD8
:100B60000A95E2F78F018B2DC3DF80230095D60114
:100B70009C910923082B0C9311E001C010E0E12F98
:100B8000F0E0E601CE0FDF1F1A1528F48B2DB0DF41
:100B900088831F5FF4CF80E0ABDF8883D7011E9688
:100BA000EC91F0E00BD6DF91CF911F910F91FF9068
:100BB000EF90DF90CF90BF90AF90A1CF0F931F9396
:100BC000CF93DF9300D0CDB7DEB78C01DC01529616
:100BD0008D919C9153974A83698373DFD8011E9648
:100BE000EC91F0E0F1D56981862F82DF4A81842F74
:100BF0007FDFD8011E96EC91F0E0E0D50F900F90CA
:100C0000DF91CF911F910F917ACFCF92DF92EF9228
:100C1000FF920F931F93CF93DF9300D01F92CDB716
:100C2000DEB78C01F42EDC0152968D919C91539786
:100C30002A833B83698345DFD8011E96EC91F0E05F
:100C4000C3D56981862F54DF2A81E22EC22E3B81D3
:100C5000D32E8C2D8E198F1528F4F60181916F01FA
:100C600047DFF7CFD8011E96EC91F0E0A7D50F90A3
:100C70000F900F90DF91CF911F910F91FF90EF9008
:100C8000DF90CF903CCF0F931F93CF93DF931F92B2
:100C9000CDB7DEB78C01DC0152968D919C915397B4
:100CA00069830FDFD8011E96EC91F0E08DD5698144
:100CB000862F80681DDF80E01BDFD8011E96EC9137
:100CC000F0E07CD589831BDF89810F90DF91CF9184
:100CD0001F910F9108950F9341111DDF0F910895FA
:100CE000EF92FF921F93CF93DF931F92CDB7DEB7A2
:100CF0007C01162F4983C7DF4981482B612FC7012B
:100D00000F90DF91CF911F91FF90EF9057CFEF920F
:100D1000FF921F93CF93DF931F92CDB7DEB77C0175
:100D2000162F4983B0DF498140954823612FC701C1
:100D30000F90DF91CF911F91FF90EF903FCFCF9217
:100D4000DF92EF92FF920F931F93CF93DF93EC010B
:100D50006B01142F790140E062E030DF44E06AE08B
:100D6000CE012CDF40E864E1CE0128DF9601412F5F
:100D700062E1CE014ADF43E062E0CE011FDF08E816
:100D800013E16AE0CE017FDF82FF10C040E062E045
:100D9000CE0114DF64E4CE0176DFF701808362E4E4
:100DA000CE0171DFF701818380E004C00150110999
:100DB00041F783E0DF91CF911F910F91FF90EF906A
:100DC000DF90CF900895CF93DF93EC014FE062E086
:100DD000F5DE62E370E080E090E061D662E0CE0193
:100DE00052DF84FDFBCFDF91CF910895CF93DF9346
:100DF000EC0168E248DF482F8370833031F04360B4
:100E000068E2CE01DF91CF91D9CEDF91CF910895E5
:100E1000CF93DF93EC018E85C0D4EE85F0E0CED485
:100E20008F858F3F09F436C0B8D48F8590E0FC01E0
:100E30005ED5E1112FC0FC01C1D462E370E080E017
:100E400090E02DD640E064E2CE01B8DE40E066E2FC
:100E5000CE01B4DE46E268E4CE01B0DE40E864E5EF
:100E6000CE01ACDE49EA66E5CE01A8DE43E068E5E6
:100E7000CE01A4DE48EE6AE5CE01A0DE40E46AE2DF
:100E8000CE019CDE4DE362E2CE0198DECE01DF9121
:100E9000CF91ACCFCE0197DFD5CF5F926F927F928B
:100EA0008F929F92AF92BF92CF92DF92EF92FF927A
:100EB0000F931F93CF93DF9300D000D0CDB7DEB751
:100EC0003C01162F942EA114B10419F0F5014081B4
:100ED00001C040E0542EF0E18F9E500C112440E000
:100EE00062E0C3012B833C8369DE4FE768E0C30106
:100EF00065DE40E864E1C30161DE2B813C81402F67
:100F000062E1C30182DE452D6AE1C30157DE412F54
:100F100062E0C30153DE1C3021F440E86AE1C30102
:100F2000DFDE00ED17E068E0C301ADDE982F992108
:100F300039F480FD03C001501109A9F783E061C0B5
:100F40006CE0C301A0DE182F837109F059C0E114D1
:100F5000F104E1F0C114D104C9F064E1C30193DEEE
:100F6000482FF6018081841708F444C04083082D7F
:100F7000970162E1C301AFDE68E1C30184DE8770DF
:100F8000A114B10421F0F501808301C080E013FDBC
:100F900033C0E114F10491F1C114D10479F19E89B7
:100FA000992361F1F6014081413019F4843019F43C
:100FB0001FC0423010F487E024C08111FCCF4250A2
:100FC0009E012F5F3F4FB701C301B9DE811119C0E8
:100FD000F6018081E80EF11CF7013297908189813A
:100FE0009813E9CF319690818A819813E4CF06C097
:100FF0008FEF07C084E005C082E003C080E001C03D
:1010000081E00F900F900F900F90DF91CF911F9183
:101010000F91FF90EF90DF90CF90BF90AF909F9097
:101020008F907F906F905F9008958F92AF92BF9254
:10103000CF92DF92EF92FF920F931F93AF928C2C7F
:10104000570168017901042F9B0140E36CE025DF23
:101050000F901F910F91FF90EF90DF90CF90BF9076
:10106000AF908F9008952F923F924F925F926F9220
:101070007F928F929F92AF92BF92CF92DF92EF9228
:10108000FF920F931F93CF93DF93CDB7DEB72D97CA
:101090000FB6F894DEBF0FBECDBF413508F006C1D4
:1010A000342E3B014C0140E86CE131DEBB24B394AB
:1010B00022E0B21691F033E0B316E1F041E0B41251
:1010C000F9C083E989833320D1F081E0F301908175
:1010D000953008F480E0D12C17C085E9898333204E
:1010E00081F081E0F3019081983008F480E053E0D2
:1010F000D52E0AC087E9898346E0D42E04C0D12CBE
:1011000002C033E0D32E80E0532DF8EFDF9E500D68
:10111000112457FD50E0882321F098E89B8343E099
:1011200001C042E021E0952F977009F420E0952F4F
:10113000959595959595290F21F4882311F1585F80
:1011400020C0811102C094E001C093E0291708F487
:10115000922F20E030E06D2D70E0E42FE20FA1E04F
:10116000B0E0AC0FBD1FAE0FB11DF901E60FF71FC8
:10117000E60DF71DE181EC932F5F3F4F291768F3D0
:10118000DCCF23E0222E5032F4F020E72A839C812A
:101190008B8189279D8189279E8189278F839E0145
:1011A000285F3F4F47E0BE016F5F7F4FC4015D87FF
:1011B000C6DD5D858111C9C01B862A86CE010796D2
:1011C0002C0179E01EC0952F97709B87252F2595C0
:1011D0002595259582E0820F392FE0E18E9F300D15
:1011E00011243A8371E0911101C070E0780F44241A
:1011F0004394512C4C0E5D1E480E511C87E0821BFF
:101200008A87CB844C2D4295407F4C0D6AE1C40106
:101210005D877C87D3DCA12C9E01255F3F4F790140
:101220008E01065F1F4F92017C85472FBE016F5FC5
:101230007F4FC401FADE5D85823091F56CE1C40117
:1012400022DD5D8585FD34C08F7109F480E2282F91
:1012500030E0452F550F550B421753075CF5582FBB
:10126000C90101978770992725952595259531E026
:10127000320F21E0009709F420E0230FE1E0F0E0D5
:10128000EC0FFD1FE20FF11D21E030E002C0220F44
:10129000331F8A95E2F7C9019081892B808373CF30
:1012A000811153C0503244F450E26FCF86E04DC0FC
:1012B00082E04BC085E049C08B81883809F042C08C
:1012C00033E023E080E090E06D2D70E0FC01E60F5C
:1012D000F71FE60DF71D432F480FA1E0B0E0AC0F5C
:1012E000BD1FA40FB11D4C9141830196821770F36D
:1012F0008A85833019F58B85811120C09E012D5F71
:101300003F4F41E0B201C4011ADD81111EC09B8133
:10131000F2018181981314C09C818281981310C0BE
:10132000808182FF02C0B394C3CEF30183878B2DEB
:10133000880FB80EB394B08280E007C081E005C08A
:1013400087E003C032E024E0BDCF2D960FB6F894BD
:10135000DEBF0FBECDBFDF91CF911F910F91FF90E8
:10136000EF90DF90CF90BF90AF909F908F907F9045
:101370006F905F904F903F902F9008956F927F9263
:101380008F92AF92BF92CF92DF92EF92FF920F9324
:101390001F93CF93DF93CDB7DEB764970FB6F89462
:1013A000DEBF0FBECDBF3C01042F122FE42EF12C67
:1013B000A701CE0101960E942D1821E030E02C0FEC
:1013C0003D1F2E0D3F1D402FBE016F5F7F4FC3019C
:1013D000B6DC811129C082E18C8B1B8A0E5F1F92C3
:1013E000812CCE0143965C0101966C0143977C01F0
:1013F0009C0140E36CE0C30150DD0F90112311F01C
:10140000833079F0811110C08C89813061F48B892F
:10141000843049F481E099819A3009F480E0819523
:1014200003C080E001C081E064960FB6F894DEBF8F
:101430000FBECDBFDF91CF911F910F91FF90EF9025
:10144000DF90CF90BF90AF908F907F906F90089576
:101450004F925F926F927F928F929F92AF92CF92B4
:10146000EF92FF920F931F93CF93DF9300D0CDB7EE
:10147000DEB76A834115510529F1F90160816230B7
:1014800008F149012A013C0140E86CE140DC87E0B9
:101490008983A12CC12CCE0101967C01840192018B
:1014A00041E0BE016E5F7F4FC301BFDD81110DC002
:1014B000F4018081823041F481E09981911105C06D
:1014C00080E003C084E001C081E00F900F90DF91C5
:1014D000CF911F910F91FF90EF90CF90AF909F9081
:1014E0008F907F906F905F904F9008959A01AB011D
:1014F00066E2AECF0F931F93CF93DF9300D01F927E
:10150000CDB7DEB78C0182E08B8340E064E2C80196
:1015100055DB40E066E2C80151DB46E268E4C80101
:101520004DDBAE014D5F5F4FBE016F5F7F4FC80166
:10153000DDDF982F81E0992319F0923009F080E0E7
:101540000F900F900F90DF91CF911F910F91089501
:101550006F927F928F92AF92BF92CF92DF92EF9273
:10156000FF920F931F93CF93DF93CDB7DEB72C97E6
:101570000FB6F894DEBF0FBECDBF3C0169834A832E
:10158000F901CE0103962A5F3F4F4191DC014D9353
:10159000CD01E217F307C9F7F8019081E92FF0E0D8
:1015A0003397E00FF11FCE0109969E01235F3F4F55
:1015B0004191DC014D93CD01A217B307C9F71F92EA
:1015C000812CA12CB12CC12CD12CE12CF12C0CE0C4
:1015D0009E012F5F3F4F40E16EE0C3015EDC0F9044
:1015E0002C960FB6F894DEBF0FBECDBFDF91CF9122
:1015F0001F910F91FF90EF90DF90CF90BF90AF9031
:101600008F907F906F9008958F929F92AF92CF921C
:10161000EF92FF920F931F93CF93DF9341155105E4
:10162000F1F0F90170817231D0F08901EA014C01C9
:1016300080E3888369839A012E5F3F4F42E0BE01B9
:10164000C4017DDB81110CC0AA24A394C12CE12C20
:10165000F12C9E0144E0BE01C401E7DC01C084E03E
:10166000DF91CF911F910F91FF90EF90CF90AF90AE
:101670009F908F9008956115710519F0413108F41C
:101680007DCE86E00895DF92EF92FF920F931F9335
:10169000CF93DF9300D0CDB7DEB741155105B9F038
:1016A0002031A8F0D22E7A018C0180EA89836A83E6
:1016B00020E042E0BE016F5F7F4FC8015FDE811115
:1016C00007C020E04D2DB701C801D5DF01C086E07D
:1016D0000F900F90DF91CF911F910F91FF90EF909E
:1016E000DF9008958F77813430F4E82FF0E0EA5EE0
:1016F000FD4F8081089580E008951DBA1092680022
:101700001CBC10BE1FBA10927A0010926E0010928C
:101710006F0010927100109272001092C900ECEBF1
:10172000F0E0108214B817B81AB81DB810BA1082B9
:1017300015B818B81BB81EB811BA0895F894E1E6A8
:10174000F0E020E82083108283E084BD85BDEEE6D2
:10175000F0E080818160808381E08093800092E06E
:101760009093810080939000909391009093C0009B
:1017700094E09093C1008093C2008093C3001092C4
:10178000C40086E880937A0020937B0010927E004C
:1017900010927D00C3D178940895893170F4ECEAF9
:1017A000F0E0880FE80FF11D9591E491F0E08FB71C
:1017B000F8942181922B91838FBF0895E93150F4E1
:1017C000EE0FE551F44F0994E93120F4EE0FE35E9A
:1017D000F34F09940895289A0895299A08952A9A0A
:1017E00008952B9A08952F9A6AC0589A58C0599A0A
:1017F00008955A9A08955B9A0895469A66C0479A42
:101800006AC05E9A08955F9A6CC02C9A08952D9ACA
:101810004AC02E9A4EC08F9A08958E9A08958D9A36
:1018200008958C9A0895899A0895889A08955C9AE3
:1018300008955D9A0895769A0895289808952998AC
:1018400008952A9808952B9808952F9838C058988D
:1018500026C0599808955A9808955B980895469817
:1018600034C0479838C05E9808955F983AC02C9865
:1018700008952D9818C02E981CC08F9808958E98A2
:1018800008958D9808958C9808958998089588985A
:1018900008955C9808955D98089576980895E4B544
:1018A000EF7DE4BD0895E0918000EF77E093800044
:1018B0000895E0918000EF7DE09380000895E0912D
:1018C0008000E77FE09380000895E0919000EF773B
:1018D000E09390000895E091C000EF77E093C0009E
:1018E0000895E091C200E77FE093C2000895E931D6
:1018F00030F4EE0FEE0FFF27ED57F34F0994EE276C
:101900000895E1E00895E3B1E170D9F70895E3B1F6
:10191000E270B9F70895E3B1E47099F70895E3B17F
:10192000E87079F70895E3B1E07859F70895E9B1DF
:10193000E17039F70895E9B1E27019F70895E9B156
:10194000E470F9F60895E9B1E870D9F60895E6B1C2
:10195000E074B9F60895E6B1E07899F60895E9B132
:10196000E07479F60895E9B1E07859F60895E3B1A5
:10197000E07139F60895E3B1E07219F60895E3B124
:10198000E07429F50895EFB1E07809F50895EFB115
:10199000E074E9F40895EFB1E072C9F40895EFB18D
:1019A000E071A9F40895EFB1E27089F40895EFB100
:1019B000E17069F40895E9B1E07149F40895E9B17D
:1019C000E07229F40895ECB1E07409F40895E1E0BF
:1019D0000895F89484B7877F84BF80916000806108
:1019E000809360001092600080E29EE40197F1F71E
:1019F00081E08093E00080E28093D80080E69AEE58
:101A00000197F1F77ADE0C94003FFFCFF89475DE72
:101A100080E69AEE0197F1F70C940000FFCF8F93C8
:101A20008FB78F938091AD028D5F8D37D0F4809307
:101A3000AD028091AE028F5F8093AE02D8F08091AC
:101A4000AF028F4F8093AF02A8F08091B0028F4F0A
:101A50008093B00278F08091B1028F4F8093B102F1
:101A600009C08D578093AD028091AE028E5F809346
:101A7000AE0228F78091B2028C5F8093B20258F0D8
:101A80008091B3028F4F8093B30228F08091B4020B
:101A90008F4F8093B4028F918FBF8F911895CF9203
:101AA000DF92EF92FF926B017C0119D09B01C11470
:101AB000D104E104F10471F012D0621B730B683E93
:101AC0007340A8F381E0C81AD108E108F108285151
:101AD0003C4FEDCFFF90EF90DF90CF9008950FB681
:101AE000F89466B515B27091B2028091B3029091EC
:101AF000B4020FBE10FE05C06F3F19F07C5F8F4F20
:101B00009F4F11240024660F001C660F001C7029D3
:101B100008958091E80080FFFCCF08958091D8005F
:101B200087FF02C085FF56C081E08093D70080EA1E
:101B30008093D80082E189BD09B400FEFDCF80E921
:101B40008093D8001092E0001092EB021092EA020B
:101B50001092E9021092E1021092E2021092E30266
:101B60001092E4021092E5021092E6021092E7024F
:101B70001092E80281E08093E0029DE79093DF02FB
:101B80001092DE021092DD021092DC028093DB02E2
:101B90001092CF021092D0021092D1021092D20273
:101BA0008FE08093D30290E29093D40280E88093F8
:101BB000D5021092D60222E02093D70228E020938B
:101BC000D8029093D9028093DA021092E1008DE05E
:101BD0008093E20008951F920F920FB60F92112486
:101BE0002F933F934F935F936F937F938F939F9325
:101BF000AF93BF93EF93FF939091E1001092E100B8
:101C000093FF11C01092E90081E08093EB001092E5
:101C1000EC0082E38093ED0088E08093F000109266
:101C2000EB021092E90292FF47C08091EB028823F9
:101C300009F442C08091B902882359F08150809301
:101C4000B902811106C084E08093E9008AE38093A1
:101C5000E8008091B802882331F081508093B80267
:101C6000811101C0B6DE8091DF02882329F18091C5
:101C7000B6028F5F8093B6028370F1F481E08093A7
:101C8000E9008091E80085FF17C08091DE028F5F38
:101C90008093DE022091DF0282130EC01092DE02DA
:101CA000E1EEF2E088E08E0F21912093F1008E1397
:101CB000FBCF8AE38093E80090FF0CC080E1809323
:101CC000E2001092EB0281E08093EA0280EA8093C6
:101CD000D80019BC8091EA02882379F094FF0DC0E6
:101CE00082E189BD09B400FEFDCF80E98093D80070
:101CF0008DE08093E2001092EA02FF91EF91BF9194
:101D0000AF919F918F917F916F915F914F913F9193
:101D10002F910F900FBE0F901F9018951F920F924A
:101D20000FB60F921124EF92FF920F931F932F93F0
:101D30003F934F935F936F937F938F939F93AF9353
:101D4000BF93CF93EF93FF931092E9008091E80047
:101D500083FFA4C1C091F1008091F1000091F100D6
:101D60001091F100E090F100F090F1002091F1006D
:101D70003091F10092EF9093E800863009F03FC077
:101D80008DE0EEEDF0E0459155914017510711F0CF
:101D9000359615C0459155914E155F0511F0339656
:101DA0000EC04591559184912F3F310519F010F0E7
:101DB0002FEF30E0281708F4822F3EEF08C0815043
:101DC00011F76CC1891B3093E8008823A9F090912A
:101DD000E800292F2570D9F392FD63C1982F813433
:101DE00008F090E4292F222369F3FA0145914093EA
:101DF000F100AF012150F7CF903449F352C1853043
:101E000041F48EEF8093E80084DE00680093E300E5
:101E100048C18930F1F4C111BFC00093EB021092A8
:101E2000E9021092B9028EEF8093E80081E0EFE3BF
:101E3000F3E021E08093E9002093EB0095919093EB
:101E4000EC0095919093ED008F5F873099F78EE1CC
:101E50009EC0883039F4C03809F09EC05ADE8091A7
:101E6000EB02FCC0813279F4C13A09F0B6C051DE10
:101E7000E2E0F1E087E08E0F90819093F1003196DF
:101E80008E13FACF07C1803209F03EC0C13209F08B
:101E900083C08091E80082FFFCCFE2E0F1E087E0C0
:101EA0008E0F9091F100908331968E13FACF8BEFC5
:101EB0008093E8008EEF8093E8008091020190917A
:101EC0000301A0910401B091050186389105A10597
:101ED000B10521F48FE08093B802E3C08639910503
:101EE000A105B10509F0DDC084E08093E9009FEF12
:101EF0008091EE00837039F09093E8008091E800C3
:101F000082FDFCCFF5CF82DD823231F4C13209F09F
:101F100043C00093E90204C0833221F4C132E1F5E9
:101F2000F8DDB8C0811111C0F4DDC23851F4E0927F
:101F3000E9008091EB0085FB882780F91092E90089
:101F400001C080E08093F10081C0982F9D7F913087
:101F500019F5C23009F50115110509F060C02E2DE3
:101F60002F779FEF920F963008F059C09EEF909315
:101F7000E8002093E900833009F490C089E1809360
:101F8000EB0081E090E001C0880F2A95EAF780938A
:101F9000EA001092EA0085C092E0E916F10409F027
:101FA00042C0C13AF1F4813059F4B3DDE1EEF2E020
:101FB00088E08E0F91919093F1008E13FBCF6AC051
:101FC000823021F4A6DD8091DF0248C0833009F021
:101FD00065C09FDD8091E00241C092E0E916F10406
:101FE00011F5C13209F05AC0893061F48091E800DE
:101FF00082FFFCCF8091F1008093DD028BEF809314
:10200000E80048C08A3029F41093DF021092DE0203
:1020100041C08B3009F042C00093E0023BC092E027
:10202000E916F104D9F193E0E916F10409F5C13A92
:10203000C1F4813071F46DDD8091DC028093F10098
:102040001092F1001092F1001092F1001092F10044
:1020500021C0833019F55DDD8091DB028093F100B2
:1020600019C0C132D9F48B30C9F40093DB0212C01D
:1020700094E0E916F10491F4C13A81F4813071F4ED
:1020800048DDEFECF2E08CE08E0F91919093F1003F
:102090008E13FBCF8EEF8093E80003C081E2809324
:1020A000EB00FF91EF91CF91BF91AF919F918F91F5
:1020B0007F916F915F914F913F912F911F910F9160
:1020C000FF90EF900F900FBE0F901F90189580E03B
:1020D00090E008950895CF92DF92EF92FF920F93D0
:1020E0001F93CF93DF936C01EB017B01E40EF51E90
:1020F00000E010E0CE15DF0561F06991D601ED91A9
:10210000FC910190F081E02DC6010995080F191F7F
:10211000F1CFC801DF91CF911F910F91FF90EF9008
:10212000DF90CF9008958F929F92AF92BF92CF92FF
:10213000DF92EF92FF920F931F93CF93DF93CDB770
:10214000DEB7A1970FB6F894DEBF0FBECDBF5C011E
:102150004B01DB0114960D911C911597C12CD12CCC
:10216000E12CF12C0115110501F1960141E250E03D
:10217000BE016F5F7F4FC401B1D1A80101321105CB
:1021800010F040E250E0C40ED51E041B150BD50123
:10219000ED91FC910280F381E02DBE016F5F7F4FD6
:1021A000C5010995E80EF91EDDCFC701A1960FB64E
:1021B000F894DEBF0FBECDBFDF91CF911F910F917D
:1021C000FF90EF90DF90CF90BF90AF909F908F9057
:1021D0000895CF93DF9300D0CDB7DEB72DE02983EC
:1021E0002AE02A83DC01ED91FC910280F381E02D4D
:1021F00042E050E0BE016F5F7F4F09950F900F9056
:10220000DF91CF910895CF92DF92EF92FF92CF931B
:10221000DF93EC010FB6F894C090AE02D090AF02FD
:10222000E090B002F090B1020FBEE881F981028423
:10223000F385E02DCE01099597FF1AC00FB6F894EB
:102240004091AE025091AF026091B0027091B10224
:102250000FBE4C195D096E097F098B819C81AD8190
:10226000BE81481759076A077B07F8F28FEF9FEF87
:10227000DF91CF91FF90EF90DF90CF900895FC0118
:1022800043835483658376830895AF92BF92CF9240
:10229000DF92EF92FF920F931F93CF93DF9321155D
:1022A000310511F15C01690181E0C81AD1088A0188
:1022B000C0E0D0E0E62E660FFF08CC15DD0580F407
:1022C000C501A1DF8E159F0559F097FF04C081E07D
:1022D000F501878305C0F80181938F012196EDCF29
:1022E000F8011082CE0102C080E090E0DF91CF9132
:1022F0001F910F91FF90EF90DF90CF90BF90AF9024
:102300000895FC01808191812CC50F931F93CF9379
:10231000DF93EC018B016F5F7F4F88819981B9D585
:10232000009731F0998388831B830A8381E001C081
:1023300080E0DF91CF911F910F910895CF93DF93AC
:10234000FC01228133812617370758F4EC01DDDFC9
:10235000882341F08C819D81892B19F4E881F981D2
:10236000108281E0DF91CF910895EF92FF920F9359
:102370001F93CF93DF93EC017B018A014115510537
:1023800031F4E881F981309789F010820FC0BA01E9
:10239000D5DF2881398181110CC02115310521F04B
:1023A000C901DFD4198218821B821A821D821C8205
:1023B00005C01D830C83B701C90161D6CE01DF9131
:1023C000CF911F910F91FF90EF900895FC01118222
:1023D0001082138212821582148216826115710591
:1023E00049F0FB0101900020E9F73197AF01461B4E
:1023F000570BBBCF0895CF93DF93EC0161157105A7
:1024000051F0FB0101900020E9F73197AF01461B25
:10241000570BABDF02C01D821C82CE01DF91CF9132
:102420000895EF92FF920F931F93CF93DF93EC01E8
:102430007B018C819D814115510591F08A01080F26
:10244000191FB801CE017ADF882351F02881398124
:102450008C819D81B701820F931F11D61D830C8340
:10246000CE01DF91CF911F910F91FF90EF900895D2
:102470000F931F93CF93DF9300D0CDB7DEB78C01BE
:1024800069831A8241E050E0BE016F5F7F4FC9DF70
:10249000C8010F900F90DF91CF911F910F91089578
:1024A000FC0124813581232B31F421E06115710574
:1024B00099F0FB0108C0FC018081918161157105D3
:1024C00031F421E0FC018081882331F004C0CED5B5
:1024D00021E0892B09F020E0822F08950F931F93AC
:1024E000CF93DF934115510511F161157105F9F095
:1024F000DC011496ED91FC9115972E173F0718F00B
:10250000FB01108214C0E21BF30BEA012197EC17C8
:10251000FD0708F4EF018B01FC0160817181620FFE
:10252000731FAE01C801B2D5C00FD11F1882DF9151
:10253000CF911F910F91089501D90E9422020E940C
:102540004405FDCFCF93DF931F92CDB7DEB76983EC
:10255000DC01ED91FC910280F381E02D41E050E03F
:10256000BE016F5F7F4F09950F90DF91CF91089566
:10257000FC018FB7F8949091EB02911102C090E0AA
:1025800010C093E09093E9009091F200911109C07E
:102590002091E80022FFF3CF25FDF1CF2BE6209319
:1025A000E8008FBF2085318537FD03C09F3F09F0CC
:1025B0009F5F892F90E00895CF93DF93EC0188858A
:1025C000998597FF09C0E881F9810284F385E02DA0
:1025D000CE0109959987888788859985DF91CF9164
:1025E00008952091EB02222371F02FB7F89433E085
:1025F0003093E9004BE63091E80035FF03C040938B
:10260000E800F9CF2FBF2FEF3FEFFC013187208784
:102610000895FC012085318537FD07C04FEF5FEF3E
:1026200051874087C901992708959FB7F8948091F1
:10263000EB02882369F083E08093E9002BE6809128
:10264000E80085FD09C082FF03C02093E800F7CFB2
:102650009FBF8FEF9FEF08958091F1002091E800D8
:1026600025FD03C02BE62093E8009FBF90E008956E
:10267000DF92EF92FF920F931F93CF93DF938C0122
:10268000EB018091EB02882371F07FB7F89484E02E
:102690008093E9008091B702882369F08091E80077
:1026A00085FD07C07FBF81E0F801828320E030E034
:1026B000D1C01092B70220E030E064E080E4F82E50
:1026C000A1EFB0E09AE3E92EE3E0DE2E41155105DB
:1026D00009F4BFC08091E400815F9091E80095FD0E
:1026E00016C07FBF9091E400981304C081E08093EE
:1026F000B70205C09091EB02911104C081E0F8018E
:102700008283A8C07FB7F8946093E900E6CF8091F8
:10271000F2009F2D981BE92FF0E04E175F0708F499
:10272000942FE92FF0E04E1B5F0B2E0F3F1FE0E4CC
:10273000E91BE03428F4EE0FFF27EF55FC4E099417
:1027400080C099919C9399919C9399919C93999114
:102750009C9399919C9399919C9399919C93999115
:102760009C9399919C9399919C9399919C93999105
:102770009C9399919C9399919C9399919C939991F5
:102780009C9399919C9399919C9399919C939991E5
:102790009C9399919C9399919C9399919C939991D5
:1027A0009C9399919C9399919C9399919C939991C5
:1027B0009C9399919C9399919C9399919C939991B5
:1027C0009C9399919C9399919C9399919C939991A5
:1027D0009C9399919C9399919C9399919C93999195
:1027E0009C9399919C9399919C9399919C93999185
:1027F0009C9399919C9399919C9399919C93999175
:102800009C9399919C9399919C9399919C93999164
:102810009C9399919C9399919C9399919C93999154
:102820009C9399919C9399919C9399919C93999144
:102830009C9399919C9399919C9399919C93999134
:102840009C938091E80085FFE092E800D092B90265
:102850003DCF7FBFC901DF91CF911F910F91FF90B5
:10286000EF90DF9008952FEF3FEFFC013187208735
:1028700055D90FB6F8948091AE029091AF02A09115
:10288000B002B091B1020FBE9C018091EB0288238F
:1028900029F068EC70E080E090E001C98091EA02E4
:1028A000882301F10FB6F8948091AE029091AF02A7
:1028B000A091B002B091B1020FBE4091EA02442350
:1028C00089F00FB6F8944091AE025091AF0260913A
:1028D000B0027091B1020FBE481B590B4B3F51051E
:1028E00060F311C00FB6F8948091AE029091AF02E0
:1028F000A091B002B091B1020FBE821B930B853C38
:10290000994008F4C2CF08956032710540F46A30EE
:10291000710569F06B30710561F48BE208956038E0
:10292000710538F4FB01E55DFC4F8491089588E260
:10293000089580E008958091EB02882309F441C056
:102940008FB7F89491E09093E9009091E4009E5C39
:1029500021E03091E80035FD0EC08FBF8091EB0281
:10296000882379F18091E400891759F18FB7F894A1
:102970002093E900EECF9091E1029093F1009091C5
:10298000E2029093F1009091E3029093F100909114
:10299000E4029093F1009091E5029093F100909100
:1029A000E6029093F1009091E7029093F1009091EC
:1029B000E8029093F1009AE39093E8001092DE020F
:1029C0008FBF0895CF93DF93EC0166FF02C082E0D2
:1029D00001C080E08093E1021092E2026F73609385
:1029E000E3021092E4021092E5021092E6021092C5
:1029F000E7021092E802CE019EDF1092E1021092EF
:102A0000E302CE01DF91CF9196CF6111DBCF089524
:102A1000CF93DF93EC0167FD03C01B8270E00CC015
:102A2000603CD8F46F738B81813061F41B828C81A0
:102A30009D819C01262BB901CE0166DF682FCE0156
:102A4000E4DF20C08230F1F430E4639FB001112450
:102A50008C819D81682B792B07C0603E48F46F7193
:102A600080E4689FB00111247D836C8381E009C0FC
:102A7000603F30F46295607F1C826D8382E001C00C
:102A80008FEF8B8381E090E0DF91CF910895DC019F
:102A9000442369F09091E102842F8923841739F04F
:102AA000942B9093E1026623F9F091E003C0662332
:102AB000E9F090E0E3EEF2E086E08E0F2191261738
:102AC00089F08E13FBCF22E030E0F901EF51FD4F8A
:102AD0008081811102C0608307C02F5F3F4F283083
:102AE000310599F7992311F0CD0125CF0895CF93A2
:102AF000DF93EC01272F3327223CB8F0203E60F40F
:102B00006F7377272F71332786E0220F331F8A9543
:102B1000E1F7622B732B09C0203F11F440E010C095
:102B2000203E91F4462F60E00BC0CE01EDDE8823FD
:102B300059F086FF02C042E001C040E0682F6F7389
:102B4000CE01DF91CF91A3CFDF91CF9108959C016A
:102B5000442379F09091E102842F892351F040952C
:102B600049234093E102611102C0C901E4CE91E022
:102B700003C0662379F090E0E3EEF2E086E08E0F8A
:102B80004081461302C0108291E031968E13F8CF37
:102B90009111EBCF0895CF93DF93EC01272F3327CB
:102BA000223CB8F0203E60F46F7377272F713327F3
:102BB00086E0220F331F8A95E1F7622B732B09C041
:102BC000203F11F440E010C0203E91F4462F60E019
:102BD0000BC0CE0199DE882359F086FF02C042E087
:102BE00001C040E0682F6F73CE01DF91CF91AFCF6E
:102BF000DF91CF910895E1ECF2E08AE0DF011D92D0
:102C00008A95E9F788EE93E0A0E0B0E083839483AF
:102C1000A583B68385E692E091838083EBEBF2E0B7
:102C200086E0DF011D928A95E9F787E792E09183BC
:102C300080831092BA020895CF93DF93823091057A
:102C400010F482E090E0E091CD02F091CE0220E01D
:102C500030E0C0E0D0E0309711F140815181481759
:102C60005907C0F04817590761F482819381209772
:102C700019F09B838A832BC09093CE028093CD0260
:102C800026C02115310519F04217530718F49A018F
:102C9000BE01DF01EF010280F381E02DDCCF2115C1
:102CA000310509F1281B390B2430310590F41296B7
:102CB0008D919C9113976115710521F0FB01938310
:102CC000828304C09093CE028093CD02FD013296A0
:102CD00044C0FD01E20FF31F81939193225031090B
:102CE0002D933C933AC02091CB023091CC02232B00
:102CF00041F420910B0130910C013093CC022093D0
:102D0000CB022091090130910A012115310541F4CE
:102D10002DB73EB740910D0150910E01241B350B8C
:102D2000E091CB02F091CC02E217F307A0F42E1B46
:102D30003F0B2817390778F0AC014E5F5F4F24171F
:102D4000350748F04E0F5F1F5093CC024093CB02E3
:102D50008193919302C0E0E0F0E0CF01DF91CF9149
:102D600008950F931F93CF93DF93009709F48CC0BE
:102D7000FC013297138212820091CD021091CE0293
:102D80000115110581F420813181820F931F20915B
:102D9000CB023091CC022817390779F5F093CC0299
:102DA000E093CB0271C0D80140E050E0AE17BF07FE
:102DB00050F412962D913C911397AD0121153105D8
:102DC00009F1D901F3CF9D01DA01338322836081B8
:102DD0007181860F971F8217930769F4EC01288190
:102DE0003981260F371F2E5F3F4F318320838A8121
:102DF0009B8193838283452B29F4F093CE02E09349
:102E0000CD0242C01396FC93EE931297ED014991C7
:102E100059919E01240F351FE217F30771F4808149
:102E20009181840F951F029611969C938E938281B7
:102E3000938113969C938E931297E0E0F0E0D80173
:102E400012968D919C911397009719F0F8018C01BF
:102E5000F6CF8D919C9198012E5F3F4F820F931F6B
:102E60002091CB023091CC022817390769F43097B2
:102E700029F41092CE021092CD0202C01382128267
:102E80001093CC020093CB02DF91CF911F910F9151
:102E900008956F927F928F929F92AF92BF92CF923E
:102EA000DF92EF92FF920F931F93CF93DF93EC018A
:102EB000009781F4CB01DF91CF911F910F91FF908B
:102EC000EF90DF90CF90BF90AF909F908F907F90CA
:102ED0006F90B2CEFC01E60FF71F9C012250310922
:102EE000E217F30708F4A2C0D9010D911C911197C4
:102EF00006171707A8F00530110508F495C0C8019A
:102F000004978617970708F48FC002501109061B13
:102F1000170B019311936D937C93CF0122DF84C033
:102F20005B01A01AB10A4C01800E911EA091CD0246
:102F3000B091CE0240E050E0E12CF12C109709F462
:102F40004AC0A815B905D1F56D907C901197630121
:102F500082E0C80ED11CCA14DB0480F1A3014A1917
:102F60005B096A0182E0C80ED11C1296BC901297D0
:102F70001396AC91B5E0CB16D10440F0B282A38396
:102F800051834083D9016D937C930AC00E5F1F4F1C
:102F9000C301800F911FF90191838083EB2DFA2FDC
:102FA000E114F10431F0D7011396FC93EE931297DC
:102FB0003BC0F093CE02E093CD0236C08D919C9140
:102FC00011974817590708F4AC017D0112960D902E
:102FD000BC91A02DB3CF8091CB029091CC028815EB
:102FE0009905B1F44617570798F48DB79EB74091ED
:102FF0000D0150910E01841B950BE817F907B0F4F1
:10300000F093CC02E093CB02F901718360830CC092
:10301000CB0112DE7C01009749F0A801BE011DD052
:10302000CE019FDEC70104C0CE0102C080E090E067
:10303000DF91CF911F910F91FF90EF90DF90CF9094
:10304000BF90AF909F908F907F906F900895EE0FFC
:10305000FF1F0590F491E02D0994FB01DC0102C0F3
:1030600001900D9241505040D8F70895FB01DC01CA
:103070008D91019080190110D9F3990B0895FB01EE
:10308000DC0101900D920020E1F70895FB01DC01C5
:103090004150504048F001900D920020C9F701C006
:1030A0001D9241505040E0F7089511E0C8EDD1E085
:1030B00003C0FE01CCDF2196C93DD107D1F7F894BA
:0230C000FFCF40
:1030C200010100E100000000080000EC0280006342
:1030D2006F6E5F74657374007375636365737300F9
:1030E200636F6E5F7374617274005265616479001C
:1030F2007265715F7772697465007265715F77726C
:103102006974652D57524954453A535441525400FB
:103112007265715F77726974652D4552524F523AEA
:10312200415554485F4641494C007265715F777260
:103132006974652D4552524F523A57524954455F70
:103142004641494C007265715F77726974652D530F
:103152005543434553533A444F4E45007265715FA0
:103162004944007265715F49442D524541443A53C6
:1031720054415254007265715F49442D4552524F79
:10318200523A415554485F4641494C007265715F5D
:1031920049442D4552524F523A524541445F4641AD
:1031A200494C007265715F49442D53554343455361
:1031B200533A007265715F65786974007265715F78
:1031C200657869742D535543434553533A434F4EE3
:1031D2005F454E440A0006090000FF000000040398
:1031E20000000000000007070000000000000500CA
:1031F20000000000000001000000000000000000CC
:1032020000000000000000000000000000000000BC
:10321200000000000000020000000033087A0A5398
:103222000500000000A21238136710F112B812094B
:1032320013DC120000000008156B1067106A100002
:00000001FF
